{
	"2_Faucet/Faucet.sol": {
		"Faucet": {
			"abi": [
				{
					"inputs": [
						{
							"internalType": "address",
							"name": "_tokenContract",
							"type": "address"
						}
					],
					"stateMutability": "nonpayable",
					"type": "constructor"
				},
				{
					"anonymous": false,
					"inputs": [
						{
							"indexed": true,
							"internalType": "address",
							"name": "Receiver",
							"type": "address"
						},
						{
							"indexed": true,
							"internalType": "uint256",
							"name": "Amount",
							"type": "uint256"
						}
					],
					"name": "SendToken",
					"type": "event"
				},
				{
					"inputs": [],
					"name": "amountAllowed",
					"outputs": [
						{
							"internalType": "uint256",
							"name": "",
							"type": "uint256"
						}
					],
					"stateMutability": "view",
					"type": "function"
				},
				{
					"inputs": [],
					"name": "requestTokens",
					"outputs": [],
					"stateMutability": "nonpayable",
					"type": "function"
				},
				{
					"inputs": [
						{
							"internalType": "address",
							"name": "",
							"type": "address"
						}
					],
					"name": "requestedAddress",
					"outputs": [
						{
							"internalType": "bool",
							"name": "",
							"type": "bool"
						}
					],
					"stateMutability": "view",
					"type": "function"
				},
				{
					"inputs": [],
					"name": "tokenContract",
					"outputs": [
						{
							"internalType": "address",
							"name": "",
							"type": "address"
						}
					],
					"stateMutability": "view",
					"type": "function"
				}
			],
			"devdoc": {
				"kind": "dev",
				"methods": {},
				"version": 1
			},
			"evm": {
				"assembly": "    /* \"2_Faucet/Faucet.sol\":2144:3219  contract Faucet {... */\n  mstore(0x40, 0x80)\n    /* \"2_Faucet/Faucet.sol\":2198:2202  1000 */\n  0x03e8\n    /* \"2_Faucet/Faucet.sol\":2167:2202  uint256 public amountAllowed = 1000 */\n  0x00\n  sstore\n    /* \"2_Faucet/Faucet.sol\":2525:2630  constructor(address _tokenContract) {... */\n  callvalue\n  dup1\n  iszero\n  tag_1\n  jumpi\n  0x00\n  dup1\n  revert\ntag_1:\n  pop\n  mload(0x40)\n  sub(codesize, bytecodeSize)\n  dup1\n  bytecodeSize\n  dup4\n  codecopy\n  dup2\n  dup2\n  add\n  0x40\n  mstore\n  dup2\n  add\n  swap1\n  tag_2\n  swap2\n  swap1\n  tag_3\n  jump\t// in\ntag_2:\n    /* \"2_Faucet/Faucet.sol\":2587:2601  _tokenContract */\n  dup1\n    /* \"2_Faucet/Faucet.sol\":2571:2584  tokenContract */\n  0x01\n  0x00\n    /* \"2_Faucet/Faucet.sol\":2571:2601  tokenContract = _tokenContract */\n  0x0100\n  exp\n  dup2\n  sload\n  dup2\n  0xffffffffffffffffffffffffffffffffffffffff\n  mul\n  not\n  and\n  swap1\n  dup4\n  0xffffffffffffffffffffffffffffffffffffffff\n  and\n  mul\n  or\n  swap1\n  sstore\n  pop\n    /* \"2_Faucet/Faucet.sol\":2525:2630  constructor(address _tokenContract) {... */\n  pop\n    /* \"2_Faucet/Faucet.sol\":2144:3219  contract Faucet {... */\n  jump(tag_6)\n    /* \"#utility.yul\":88:205   */\ntag_8:\n    /* \"#utility.yul\":197:198   */\n  0x00\n    /* \"#utility.yul\":194:195   */\n  dup1\n    /* \"#utility.yul\":187:199   */\n  revert\n    /* \"#utility.yul\":334:460   */\ntag_10:\n    /* \"#utility.yul\":371:378   */\n  0x00\n    /* \"#utility.yul\":411:453   */\n  0xffffffffffffffffffffffffffffffffffffffff\n    /* \"#utility.yul\":404:409   */\n  dup3\n    /* \"#utility.yul\":400:454   */\n  and\n    /* \"#utility.yul\":389:454   */\n  swap1\n  pop\n    /* \"#utility.yul\":334:460   */\n  swap2\n  swap1\n  pop\n  jump\t// out\n    /* \"#utility.yul\":466:562   */\ntag_11:\n    /* \"#utility.yul\":503:510   */\n  0x00\n    /* \"#utility.yul\":532:556   */\n  tag_20\n    /* \"#utility.yul\":550:555   */\n  dup3\n    /* \"#utility.yul\":532:556   */\n  tag_10\n  jump\t// in\ntag_20:\n    /* \"#utility.yul\":521:556   */\n  swap1\n  pop\n    /* \"#utility.yul\":466:562   */\n  swap2\n  swap1\n  pop\n  jump\t// out\n    /* \"#utility.yul\":568:690   */\ntag_12:\n    /* \"#utility.yul\":641:665   */\n  tag_22\n    /* \"#utility.yul\":659:664   */\n  dup2\n    /* \"#utility.yul\":641:665   */\n  tag_11\n  jump\t// in\ntag_22:\n    /* \"#utility.yul\":634:639   */\n  dup2\n    /* \"#utility.yul\":631:666   */\n  eq\n    /* \"#utility.yul\":621:684   */\n  tag_23\n  jumpi\n    /* \"#utility.yul\":680:681   */\n  0x00\n    /* \"#utility.yul\":677:678   */\n  dup1\n    /* \"#utility.yul\":670:682   */\n  revert\n    /* \"#utility.yul\":621:684   */\ntag_23:\n    /* \"#utility.yul\":568:690   */\n  pop\n  jump\t// out\n    /* \"#utility.yul\":696:839   */\ntag_13:\n    /* \"#utility.yul\":753:758   */\n  0x00\n    /* \"#utility.yul\":784:790   */\n  dup2\n    /* \"#utility.yul\":778:791   */\n  mload\n    /* \"#utility.yul\":769:791   */\n  swap1\n  pop\n    /* \"#utility.yul\":800:833   */\n  tag_25\n    /* \"#utility.yul\":827:832   */\n  dup2\n    /* \"#utility.yul\":800:833   */\n  tag_12\n  jump\t// in\ntag_25:\n    /* \"#utility.yul\":696:839   */\n  swap3\n  swap2\n  pop\n  pop\n  jump\t// out\n    /* \"#utility.yul\":845:1196   */\ntag_3:\n    /* \"#utility.yul\":915:921   */\n  0x00\n    /* \"#utility.yul\":964:966   */\n  0x20\n    /* \"#utility.yul\":952:961   */\n  dup3\n    /* \"#utility.yul\":943:950   */\n  dup5\n    /* \"#utility.yul\":939:962   */\n  sub\n    /* \"#utility.yul\":935:967   */\n  slt\n    /* \"#utility.yul\":932:1051   */\n  iszero\n  tag_27\n  jumpi\n    /* \"#utility.yul\":970:1049   */\n  tag_28\n  tag_8\n  jump\t// in\ntag_28:\n    /* \"#utility.yul\":932:1051   */\ntag_27:\n    /* \"#utility.yul\":1090:1091   */\n  0x00\n    /* \"#utility.yul\":1115:1179   */\n  tag_29\n    /* \"#utility.yul\":1171:1178   */\n  dup5\n    /* \"#utility.yul\":1162:1168   */\n  dup3\n    /* \"#utility.yul\":1151:1160   */\n  dup6\n    /* \"#utility.yul\":1147:1169   */\n  add\n    /* \"#utility.yul\":1115:1179   */\n  tag_13\n  jump\t// in\ntag_29:\n    /* \"#utility.yul\":1105:1179   */\n  swap2\n  pop\n    /* \"#utility.yul\":1061:1189   */\n  pop\n    /* \"#utility.yul\":845:1196   */\n  swap3\n  swap2\n  pop\n  pop\n  jump\t// out\n    /* \"2_Faucet/Faucet.sol\":2144:3219  contract Faucet {... */\ntag_6:\n  dataSize(sub_0)\n  dup1\n  dataOffset(sub_0)\n  0x00\n  codecopy\n  0x00\n  return\nstop\n\nsub_0: assembly {\n        /* \"2_Faucet/Faucet.sol\":2144:3219  contract Faucet {... */\n      mstore(0x40, 0x80)\n      callvalue\n      dup1\n      iszero\n      tag_1\n      jumpi\n      0x00\n      dup1\n      revert\n    tag_1:\n      pop\n      jumpi(tag_2, lt(calldatasize, 0x04))\n      shr(0xe0, calldataload(0x00))\n      dup1\n      0x359cf2b7\n      eq\n      tag_3\n      jumpi\n      dup1\n      0x55a373d6\n      eq\n      tag_4\n      jumpi\n      dup1\n      0x5e33dba9\n      eq\n      tag_5\n      jumpi\n      dup1\n      0x9ad2cd14\n      eq\n      tag_6\n      jumpi\n    tag_2:\n      0x00\n      dup1\n      revert\n        /* \"2_Faucet/Faucet.sol\":2668:3217  function requestTokens() external {... */\n    tag_3:\n      tag_7\n      tag_8\n      jump\t// in\n    tag_7:\n      stop\n        /* \"2_Faucet/Faucet.sol\":2238:2266  address public tokenContract */\n    tag_4:\n      tag_9\n      tag_10\n      jump\t// in\n    tag_9:\n      mload(0x40)\n      tag_11\n      swap2\n      swap1\n      tag_12\n      jump\t// in\n    tag_11:\n      mload(0x40)\n      dup1\n      swap2\n      sub\n      swap1\n      return\n        /* \"2_Faucet/Faucet.sol\":2295:2343  mapping(address => bool) public requestedAddress */\n    tag_5:\n      tag_13\n      0x04\n      dup1\n      calldatasize\n      sub\n      dup2\n      add\n      swap1\n      tag_14\n      swap2\n      swap1\n      tag_15\n      jump\t// in\n    tag_14:\n      tag_16\n      jump\t// in\n    tag_13:\n      mload(0x40)\n      tag_17\n      swap2\n      swap1\n      tag_18\n      jump\t// in\n    tag_17:\n      mload(0x40)\n      dup1\n      swap2\n      sub\n      swap1\n      return\n        /* \"2_Faucet/Faucet.sol\":2167:2202  uint256 public amountAllowed = 1000 */\n    tag_6:\n      tag_19\n      tag_20\n      jump\t// in\n    tag_19:\n      mload(0x40)\n      tag_21\n      swap2\n      swap1\n      tag_22\n      jump\t// in\n    tag_21:\n      mload(0x40)\n      dup1\n      swap2\n      sub\n      swap1\n      return\n        /* \"2_Faucet/Faucet.sol\":2668:3217  function requestTokens() external {... */\n    tag_8:\n        /* \"2_Faucet/Faucet.sol\":2721:2737  requestedAddress */\n      0x02\n        /* \"2_Faucet/Faucet.sol\":2721:2749  requestedAddress[msg.sender] */\n      0x00\n        /* \"2_Faucet/Faucet.sol\":2738:2748  msg.sender */\n      caller\n        /* \"2_Faucet/Faucet.sol\":2721:2749  requestedAddress[msg.sender] */\n      0xffffffffffffffffffffffffffffffffffffffff\n      and\n      0xffffffffffffffffffffffffffffffffffffffff\n      and\n      dup2\n      mstore\n      0x20\n      add\n      swap1\n      dup2\n      mstore\n      0x20\n      add\n      0x00\n      keccak256\n      0x00\n      swap1\n      sload\n      swap1\n      0x0100\n      exp\n      swap1\n      div\n      0xff\n      and\n        /* \"2_Faucet/Faucet.sol\":2720:2749  !requestedAddress[msg.sender] */\n      iszero\n        /* \"2_Faucet/Faucet.sol\":2712:2783  require(!requestedAddress[msg.sender], \"Can't Request Multiple Times!\") */\n      tag_24\n      jumpi\n      mload(0x40)\n      0x08c379a000000000000000000000000000000000000000000000000000000000\n      dup2\n      mstore\n      0x04\n      add\n      tag_25\n      swap1\n      tag_26\n      jump\t// in\n    tag_25:\n      mload(0x40)\n      dup1\n      swap2\n      sub\n      swap1\n      revert\n    tag_24:\n        /* \"2_Faucet/Faucet.sol\":2824:2836  IERC20 token */\n      0x00\n        /* \"2_Faucet/Faucet.sol\":2846:2859  tokenContract */\n      0x01\n      0x00\n      swap1\n      sload\n      swap1\n      0x0100\n      exp\n      swap1\n      div\n      0xffffffffffffffffffffffffffffffffffffffff\n      and\n        /* \"2_Faucet/Faucet.sol\":2824:2860  IERC20 token = IERC20(tokenContract) */\n      swap1\n      pop\n        /* \"2_Faucet/Faucet.sol\":2940:2953  amountAllowed */\n      sload(0x00)\n        /* \"2_Faucet/Faucet.sol\":2906:2911  token */\n      dup2\n        /* \"2_Faucet/Faucet.sol\":2906:2921  token.balanceOf */\n      0xffffffffffffffffffffffffffffffffffffffff\n      and\n      0x70a08231\n        /* \"2_Faucet/Faucet.sol\":2930:2934  this */\n      address\n        /* \"2_Faucet/Faucet.sol\":2906:2936  token.balanceOf(address(this)) */\n      mload(0x40)\n      dup3\n      0xffffffff\n      and\n      0xe0\n      shl\n      dup2\n      mstore\n      0x04\n      add\n      tag_27\n      swap2\n      swap1\n      tag_12\n      jump\t// in\n    tag_27:\n      0x20\n      mload(0x40)\n      dup1\n      dup4\n      sub\n      dup2\n      dup7\n      gas\n      staticcall\n      iszero\n      dup1\n      iszero\n      tag_29\n      jumpi\n      returndatasize\n      0x00\n      dup1\n      returndatacopy\n      revert(0x00, returndatasize)\n    tag_29:\n      pop\n      pop\n      pop\n      pop\n      mload(0x40)\n      returndatasize\n      not(0x1f)\n      0x1f\n      dup3\n      add\n      and\n      dup3\n      add\n      dup1\n      0x40\n      mstore\n      pop\n      dup2\n      add\n      swap1\n      tag_30\n      swap2\n      swap1\n      tag_31\n      jump\t// in\n    tag_30:\n        /* \"2_Faucet/Faucet.sol\":2906:2953  token.balanceOf(address(this)) >= amountAllowed */\n      lt\n      iszero\n        /* \"2_Faucet/Faucet.sol\":2898:2971  require(token.balanceOf(address(this)) >= amountAllowed, \"Faucet Empty!\") */\n      tag_32\n      jumpi\n      mload(0x40)\n      0x08c379a000000000000000000000000000000000000000000000000000000000\n      dup2\n      mstore\n      0x04\n      add\n      tag_33\n      swap1\n      tag_34\n      jump\t// in\n    tag_33:\n      mload(0x40)\n      dup1\n      swap2\n      sub\n      swap1\n      revert\n    tag_32:\n        /* \"2_Faucet/Faucet.sol\":3001:3006  token */\n      dup1\n        /* \"2_Faucet/Faucet.sol\":3001:3015  token.transfer */\n      0xffffffffffffffffffffffffffffffffffffffff\n      and\n      0xa9059cbb\n        /* \"2_Faucet/Faucet.sol\":3016:3026  msg.sender */\n      caller\n        /* \"2_Faucet/Faucet.sol\":3028:3041  amountAllowed */\n      sload(0x00)\n        /* \"2_Faucet/Faucet.sol\":3001:3042  token.transfer(msg.sender, amountAllowed) */\n      mload(0x40)\n      dup4\n      0xffffffff\n      and\n      0xe0\n      shl\n      dup2\n      mstore\n      0x04\n      add\n      tag_35\n      swap3\n      swap2\n      swap1\n      tag_36\n      jump\t// in\n    tag_35:\n      0x20\n      mload(0x40)\n      dup1\n      dup4\n      sub\n      dup2\n      0x00\n      dup8\n      gas\n      call\n      iszero\n      dup1\n      iszero\n      tag_38\n      jumpi\n      returndatasize\n      0x00\n      dup1\n      returndatacopy\n      revert(0x00, returndatasize)\n    tag_38:\n      pop\n      pop\n      pop\n      pop\n      mload(0x40)\n      returndatasize\n      not(0x1f)\n      0x1f\n      dup3\n      add\n      and\n      dup3\n      add\n      dup1\n      0x40\n      mstore\n      pop\n      dup2\n      add\n      swap1\n      tag_39\n      swap2\n      swap1\n      tag_40\n      jump\t// in\n    tag_39:\n      pop\n        /* \"2_Faucet/Faucet.sol\":3098:3102  true */\n      0x01\n        /* \"2_Faucet/Faucet.sol\":3067:3083  requestedAddress */\n      0x02\n        /* \"2_Faucet/Faucet.sol\":3067:3095  requestedAddress[msg.sender] */\n      0x00\n        /* \"2_Faucet/Faucet.sol\":3084:3094  msg.sender */\n      caller\n        /* \"2_Faucet/Faucet.sol\":3067:3095  requestedAddress[msg.sender] */\n      0xffffffffffffffffffffffffffffffffffffffff\n      and\n      0xffffffffffffffffffffffffffffffffffffffff\n      and\n      dup2\n      mstore\n      0x20\n      add\n      swap1\n      dup2\n      mstore\n      0x20\n      add\n      0x00\n      keccak256\n      0x00\n        /* \"2_Faucet/Faucet.sol\":3067:3102  requestedAddress[msg.sender] = true */\n      0x0100\n      exp\n      dup2\n      sload\n      dup2\n      0xff\n      mul\n      not\n      and\n      swap1\n      dup4\n      iszero\n      iszero\n      mul\n      or\n      swap1\n      sstore\n      pop\n        /* \"2_Faucet/Faucet.sol\":3171:3184  amountAllowed */\n      sload(0x00)\n        /* \"2_Faucet/Faucet.sol\":3159:3169  msg.sender */\n      caller\n        /* \"2_Faucet/Faucet.sol\":3149:3185  SendToken(msg.sender, amountAllowed) */\n      0xffffffffffffffffffffffffffffffffffffffff\n      and\n      0x916800025d85907d1e91e112659a8e7e77a17ea4de231b05f15bb381d3bfde61\n      mload(0x40)\n      mload(0x40)\n      dup1\n      swap2\n      sub\n      swap1\n      log3\n        /* \"2_Faucet/Faucet.sol\":2702:3217  {... */\n      pop\n        /* \"2_Faucet/Faucet.sol\":2668:3217  function requestTokens() external {... */\n      jump\t// out\n        /* \"2_Faucet/Faucet.sol\":2238:2266  address public tokenContract */\n    tag_10:\n      0x01\n      0x00\n      swap1\n      sload\n      swap1\n      0x0100\n      exp\n      swap1\n      div\n      0xffffffffffffffffffffffffffffffffffffffff\n      and\n      dup2\n      jump\t// out\n        /* \"2_Faucet/Faucet.sol\":2295:2343  mapping(address => bool) public requestedAddress */\n    tag_16:\n      mstore(0x20, 0x02)\n      dup1\n      0x00\n      mstore\n      keccak256(0x00, 0x40)\n      0x00\n      swap2\n      pop\n      sload\n      swap1\n      0x0100\n      exp\n      swap1\n      div\n      0xff\n      and\n      dup2\n      jump\t// out\n        /* \"2_Faucet/Faucet.sol\":2167:2202  uint256 public amountAllowed = 1000 */\n    tag_20:\n      sload(0x00)\n      dup2\n      jump\t// out\n        /* \"#utility.yul\":7:133   */\n    tag_41:\n        /* \"#utility.yul\":44:51   */\n      0x00\n        /* \"#utility.yul\":84:126   */\n      0xffffffffffffffffffffffffffffffffffffffff\n        /* \"#utility.yul\":77:82   */\n      dup3\n        /* \"#utility.yul\":73:127   */\n      and\n        /* \"#utility.yul\":62:127   */\n      swap1\n      pop\n        /* \"#utility.yul\":7:133   */\n      swap2\n      swap1\n      pop\n      jump\t// out\n        /* \"#utility.yul\":139:235   */\n    tag_42:\n        /* \"#utility.yul\":176:183   */\n      0x00\n        /* \"#utility.yul\":205:229   */\n      tag_65\n        /* \"#utility.yul\":223:228   */\n      dup3\n        /* \"#utility.yul\":205:229   */\n      tag_41\n      jump\t// in\n    tag_65:\n        /* \"#utility.yul\":194:229   */\n      swap1\n      pop\n        /* \"#utility.yul\":139:235   */\n      swap2\n      swap1\n      pop\n      jump\t// out\n        /* \"#utility.yul\":241:359   */\n    tag_43:\n        /* \"#utility.yul\":328:352   */\n      tag_67\n        /* \"#utility.yul\":346:351   */\n      dup2\n        /* \"#utility.yul\":328:352   */\n      tag_42\n      jump\t// in\n    tag_67:\n        /* \"#utility.yul\":323:326   */\n      dup3\n        /* \"#utility.yul\":316:353   */\n      mstore\n        /* \"#utility.yul\":241:359   */\n      pop\n      pop\n      jump\t// out\n        /* \"#utility.yul\":365:587   */\n    tag_12:\n        /* \"#utility.yul\":458:462   */\n      0x00\n        /* \"#utility.yul\":496:498   */\n      0x20\n        /* \"#utility.yul\":485:494   */\n      dup3\n        /* \"#utility.yul\":481:499   */\n      add\n        /* \"#utility.yul\":473:499   */\n      swap1\n      pop\n        /* \"#utility.yul\":509:580   */\n      tag_69\n        /* \"#utility.yul\":577:578   */\n      0x00\n        /* \"#utility.yul\":566:575   */\n      dup4\n        /* \"#utility.yul\":562:579   */\n      add\n        /* \"#utility.yul\":553:559   */\n      dup5\n        /* \"#utility.yul\":509:580   */\n      tag_43\n      jump\t// in\n    tag_69:\n        /* \"#utility.yul\":365:587   */\n      swap3\n      swap2\n      pop\n      pop\n      jump\t// out\n        /* \"#utility.yul\":674:791   */\n    tag_45:\n        /* \"#utility.yul\":783:784   */\n      0x00\n        /* \"#utility.yul\":780:781   */\n      dup1\n        /* \"#utility.yul\":773:785   */\n      revert\n        /* \"#utility.yul\":920:1042   */\n    tag_47:\n        /* \"#utility.yul\":993:1017   */\n      tag_74\n        /* \"#utility.yul\":1011:1016   */\n      dup2\n        /* \"#utility.yul\":993:1017   */\n      tag_42\n      jump\t// in\n    tag_74:\n        /* \"#utility.yul\":986:991   */\n      dup2\n        /* \"#utility.yul\":983:1018   */\n      eq\n        /* \"#utility.yul\":973:1036   */\n      tag_75\n      jumpi\n        /* \"#utility.yul\":1032:1033   */\n      0x00\n        /* \"#utility.yul\":1029:1030   */\n      dup1\n        /* \"#utility.yul\":1022:1034   */\n      revert\n        /* \"#utility.yul\":973:1036   */\n    tag_75:\n        /* \"#utility.yul\":920:1042   */\n      pop\n      jump\t// out\n        /* \"#utility.yul\":1048:1187   */\n    tag_48:\n        /* \"#utility.yul\":1094:1099   */\n      0x00\n        /* \"#utility.yul\":1132:1138   */\n      dup2\n        /* \"#utility.yul\":1119:1139   */\n      calldataload\n        /* \"#utility.yul\":1110:1139   */\n      swap1\n      pop\n        /* \"#utility.yul\":1148:1181   */\n      tag_77\n        /* \"#utility.yul\":1175:1180   */\n      dup2\n        /* \"#utility.yul\":1148:1181   */\n      tag_47\n      jump\t// in\n    tag_77:\n        /* \"#utility.yul\":1048:1187   */\n      swap3\n      swap2\n      pop\n      pop\n      jump\t// out\n        /* \"#utility.yul\":1193:1522   */\n    tag_15:\n        /* \"#utility.yul\":1252:1258   */\n      0x00\n        /* \"#utility.yul\":1301:1303   */\n      0x20\n        /* \"#utility.yul\":1289:1298   */\n      dup3\n        /* \"#utility.yul\":1280:1287   */\n      dup5\n        /* \"#utility.yul\":1276:1299   */\n      sub\n        /* \"#utility.yul\":1272:1304   */\n      slt\n        /* \"#utility.yul\":1269:1388   */\n      iszero\n      tag_79\n      jumpi\n        /* \"#utility.yul\":1307:1386   */\n      tag_80\n      tag_45\n      jump\t// in\n    tag_80:\n        /* \"#utility.yul\":1269:1388   */\n    tag_79:\n        /* \"#utility.yul\":1427:1428   */\n      0x00\n        /* \"#utility.yul\":1452:1505   */\n      tag_81\n        /* \"#utility.yul\":1497:1504   */\n      dup5\n        /* \"#utility.yul\":1488:1494   */\n      dup3\n        /* \"#utility.yul\":1477:1486   */\n      dup6\n        /* \"#utility.yul\":1473:1495   */\n      add\n        /* \"#utility.yul\":1452:1505   */\n      tag_48\n      jump\t// in\n    tag_81:\n        /* \"#utility.yul\":1442:1505   */\n      swap2\n      pop\n        /* \"#utility.yul\":1398:1515   */\n      pop\n        /* \"#utility.yul\":1193:1522   */\n      swap3\n      swap2\n      pop\n      pop\n      jump\t// out\n        /* \"#utility.yul\":1528:1618   */\n    tag_49:\n        /* \"#utility.yul\":1562:1569   */\n      0x00\n        /* \"#utility.yul\":1605:1610   */\n      dup2\n        /* \"#utility.yul\":1598:1611   */\n      iszero\n        /* \"#utility.yul\":1591:1612   */\n      iszero\n        /* \"#utility.yul\":1580:1612   */\n      swap1\n      pop\n        /* \"#utility.yul\":1528:1618   */\n      swap2\n      swap1\n      pop\n      jump\t// out\n        /* \"#utility.yul\":1624:1733   */\n    tag_50:\n        /* \"#utility.yul\":1705:1726   */\n      tag_84\n        /* \"#utility.yul\":1720:1725   */\n      dup2\n        /* \"#utility.yul\":1705:1726   */\n      tag_49\n      jump\t// in\n    tag_84:\n        /* \"#utility.yul\":1700:1703   */\n      dup3\n        /* \"#utility.yul\":1693:1727   */\n      mstore\n        /* \"#utility.yul\":1624:1733   */\n      pop\n      pop\n      jump\t// out\n        /* \"#utility.yul\":1739:1949   */\n    tag_18:\n        /* \"#utility.yul\":1826:1830   */\n      0x00\n        /* \"#utility.yul\":1864:1866   */\n      0x20\n        /* \"#utility.yul\":1853:1862   */\n      dup3\n        /* \"#utility.yul\":1849:1867   */\n      add\n        /* \"#utility.yul\":1841:1867   */\n      swap1\n      pop\n        /* \"#utility.yul\":1877:1942   */\n      tag_86\n        /* \"#utility.yul\":1939:1940   */\n      0x00\n        /* \"#utility.yul\":1928:1937   */\n      dup4\n        /* \"#utility.yul\":1924:1941   */\n      add\n        /* \"#utility.yul\":1915:1921   */\n      dup5\n        /* \"#utility.yul\":1877:1942   */\n      tag_50\n      jump\t// in\n    tag_86:\n        /* \"#utility.yul\":1739:1949   */\n      swap3\n      swap2\n      pop\n      pop\n      jump\t// out\n        /* \"#utility.yul\":1955:2032   */\n    tag_51:\n        /* \"#utility.yul\":1992:1999   */\n      0x00\n        /* \"#utility.yul\":2021:2026   */\n      dup2\n        /* \"#utility.yul\":2010:2026   */\n      swap1\n      pop\n        /* \"#utility.yul\":1955:2032   */\n      swap2\n      swap1\n      pop\n      jump\t// out\n        /* \"#utility.yul\":2038:2156   */\n    tag_52:\n        /* \"#utility.yul\":2125:2149   */\n      tag_89\n        /* \"#utility.yul\":2143:2148   */\n      dup2\n        /* \"#utility.yul\":2125:2149   */\n      tag_51\n      jump\t// in\n    tag_89:\n        /* \"#utility.yul\":2120:2123   */\n      dup3\n        /* \"#utility.yul\":2113:2150   */\n      mstore\n        /* \"#utility.yul\":2038:2156   */\n      pop\n      pop\n      jump\t// out\n        /* \"#utility.yul\":2162:2384   */\n    tag_22:\n        /* \"#utility.yul\":2255:2259   */\n      0x00\n        /* \"#utility.yul\":2293:2295   */\n      0x20\n        /* \"#utility.yul\":2282:2291   */\n      dup3\n        /* \"#utility.yul\":2278:2296   */\n      add\n        /* \"#utility.yul\":2270:2296   */\n      swap1\n      pop\n        /* \"#utility.yul\":2306:2377   */\n      tag_91\n        /* \"#utility.yul\":2374:2375   */\n      0x00\n        /* \"#utility.yul\":2363:2372   */\n      dup4\n        /* \"#utility.yul\":2359:2376   */\n      add\n        /* \"#utility.yul\":2350:2356   */\n      dup5\n        /* \"#utility.yul\":2306:2377   */\n      tag_52\n      jump\t// in\n    tag_91:\n        /* \"#utility.yul\":2162:2384   */\n      swap3\n      swap2\n      pop\n      pop\n      jump\t// out\n        /* \"#utility.yul\":2390:2559   */\n    tag_53:\n        /* \"#utility.yul\":2474:2485   */\n      0x00\n        /* \"#utility.yul\":2508:2514   */\n      dup3\n        /* \"#utility.yul\":2503:2506   */\n      dup3\n        /* \"#utility.yul\":2496:2515   */\n      mstore\n        /* \"#utility.yul\":2548:2552   */\n      0x20\n        /* \"#utility.yul\":2543:2546   */\n      dup3\n        /* \"#utility.yul\":2539:2553   */\n      add\n        /* \"#utility.yul\":2524:2553   */\n      swap1\n      pop\n        /* \"#utility.yul\":2390:2559   */\n      swap3\n      swap2\n      pop\n      pop\n      jump\t// out\n        /* \"#utility.yul\":2565:2744   */\n    tag_54:\n        /* \"#utility.yul\":2705:2736   */\n      0x43616e27742052657175657374204d756c7469706c652054696d657321000000\n        /* \"#utility.yul\":2701:2702   */\n      0x00\n        /* \"#utility.yul\":2693:2699   */\n      dup3\n        /* \"#utility.yul\":2689:2703   */\n      add\n        /* \"#utility.yul\":2682:2737   */\n      mstore\n        /* \"#utility.yul\":2565:2744   */\n      pop\n      jump\t// out\n        /* \"#utility.yul\":2750:3116   */\n    tag_55:\n        /* \"#utility.yul\":2892:2895   */\n      0x00\n        /* \"#utility.yul\":2913:2980   */\n      tag_95\n        /* \"#utility.yul\":2977:2979   */\n      0x1d\n        /* \"#utility.yul\":2972:2975   */\n      dup4\n        /* \"#utility.yul\":2913:2980   */\n      tag_53\n      jump\t// in\n    tag_95:\n        /* \"#utility.yul\":2906:2980   */\n      swap2\n      pop\n        /* \"#utility.yul\":2989:3082   */\n      tag_96\n        /* \"#utility.yul\":3078:3081   */\n      dup3\n        /* \"#utility.yul\":2989:3082   */\n      tag_54\n      jump\t// in\n    tag_96:\n        /* \"#utility.yul\":3107:3109   */\n      0x20\n        /* \"#utility.yul\":3102:3105   */\n      dup3\n        /* \"#utility.yul\":3098:3110   */\n      add\n        /* \"#utility.yul\":3091:3110   */\n      swap1\n      pop\n        /* \"#utility.yul\":2750:3116   */\n      swap2\n      swap1\n      pop\n      jump\t// out\n        /* \"#utility.yul\":3122:3541   */\n    tag_26:\n        /* \"#utility.yul\":3288:3292   */\n      0x00\n        /* \"#utility.yul\":3326:3328   */\n      0x20\n        /* \"#utility.yul\":3315:3324   */\n      dup3\n        /* \"#utility.yul\":3311:3329   */\n      add\n        /* \"#utility.yul\":3303:3329   */\n      swap1\n      pop\n        /* \"#utility.yul\":3375:3384   */\n      dup2\n        /* \"#utility.yul\":3369:3373   */\n      dup2\n        /* \"#utility.yul\":3365:3385   */\n      sub\n        /* \"#utility.yul\":3361:3362   */\n      0x00\n        /* \"#utility.yul\":3350:3359   */\n      dup4\n        /* \"#utility.yul\":3346:3363   */\n      add\n        /* \"#utility.yul\":3339:3386   */\n      mstore\n        /* \"#utility.yul\":3403:3534   */\n      tag_98\n        /* \"#utility.yul\":3529:3533   */\n      dup2\n        /* \"#utility.yul\":3403:3534   */\n      tag_55\n      jump\t// in\n    tag_98:\n        /* \"#utility.yul\":3395:3534   */\n      swap1\n      pop\n        /* \"#utility.yul\":3122:3541   */\n      swap2\n      swap1\n      pop\n      jump\t// out\n        /* \"#utility.yul\":3547:3669   */\n    tag_56:\n        /* \"#utility.yul\":3620:3644   */\n      tag_100\n        /* \"#utility.yul\":3638:3643   */\n      dup2\n        /* \"#utility.yul\":3620:3644   */\n      tag_51\n      jump\t// in\n    tag_100:\n        /* \"#utility.yul\":3613:3618   */\n      dup2\n        /* \"#utility.yul\":3610:3645   */\n      eq\n        /* \"#utility.yul\":3600:3663   */\n      tag_101\n      jumpi\n        /* \"#utility.yul\":3659:3660   */\n      0x00\n        /* \"#utility.yul\":3656:3657   */\n      dup1\n        /* \"#utility.yul\":3649:3661   */\n      revert\n        /* \"#utility.yul\":3600:3663   */\n    tag_101:\n        /* \"#utility.yul\":3547:3669   */\n      pop\n      jump\t// out\n        /* \"#utility.yul\":3675:3818   */\n    tag_57:\n        /* \"#utility.yul\":3732:3737   */\n      0x00\n        /* \"#utility.yul\":3763:3769   */\n      dup2\n        /* \"#utility.yul\":3757:3770   */\n      mload\n        /* \"#utility.yul\":3748:3770   */\n      swap1\n      pop\n        /* \"#utility.yul\":3779:3812   */\n      tag_103\n        /* \"#utility.yul\":3806:3811   */\n      dup2\n        /* \"#utility.yul\":3779:3812   */\n      tag_56\n      jump\t// in\n    tag_103:\n        /* \"#utility.yul\":3675:3818   */\n      swap3\n      swap2\n      pop\n      pop\n      jump\t// out\n        /* \"#utility.yul\":3824:4175   */\n    tag_31:\n        /* \"#utility.yul\":3894:3900   */\n      0x00\n        /* \"#utility.yul\":3943:3945   */\n      0x20\n        /* \"#utility.yul\":3931:3940   */\n      dup3\n        /* \"#utility.yul\":3922:3929   */\n      dup5\n        /* \"#utility.yul\":3918:3941   */\n      sub\n        /* \"#utility.yul\":3914:3946   */\n      slt\n        /* \"#utility.yul\":3911:4030   */\n      iszero\n      tag_105\n      jumpi\n        /* \"#utility.yul\":3949:4028   */\n      tag_106\n      tag_45\n      jump\t// in\n    tag_106:\n        /* \"#utility.yul\":3911:4030   */\n    tag_105:\n        /* \"#utility.yul\":4069:4070   */\n      0x00\n        /* \"#utility.yul\":4094:4158   */\n      tag_107\n        /* \"#utility.yul\":4150:4157   */\n      dup5\n        /* \"#utility.yul\":4141:4147   */\n      dup3\n        /* \"#utility.yul\":4130:4139   */\n      dup6\n        /* \"#utility.yul\":4126:4148   */\n      add\n        /* \"#utility.yul\":4094:4158   */\n      tag_57\n      jump\t// in\n    tag_107:\n        /* \"#utility.yul\":4084:4158   */\n      swap2\n      pop\n        /* \"#utility.yul\":4040:4168   */\n      pop\n        /* \"#utility.yul\":3824:4175   */\n      swap3\n      swap2\n      pop\n      pop\n      jump\t// out\n        /* \"#utility.yul\":4181:4344   */\n    tag_58:\n        /* \"#utility.yul\":4321:4336   */\n      0x46617563657420456d7074792100000000000000000000000000000000000000\n        /* \"#utility.yul\":4317:4318   */\n      0x00\n        /* \"#utility.yul\":4309:4315   */\n      dup3\n        /* \"#utility.yul\":4305:4319   */\n      add\n        /* \"#utility.yul\":4298:4337   */\n      mstore\n        /* \"#utility.yul\":4181:4344   */\n      pop\n      jump\t// out\n        /* \"#utility.yul\":4350:4716   */\n    tag_59:\n        /* \"#utility.yul\":4492:4495   */\n      0x00\n        /* \"#utility.yul\":4513:4580   */\n      tag_110\n        /* \"#utility.yul\":4577:4579   */\n      0x0d\n        /* \"#utility.yul\":4572:4575   */\n      dup4\n        /* \"#utility.yul\":4513:4580   */\n      tag_53\n      jump\t// in\n    tag_110:\n        /* \"#utility.yul\":4506:4580   */\n      swap2\n      pop\n        /* \"#utility.yul\":4589:4682   */\n      tag_111\n        /* \"#utility.yul\":4678:4681   */\n      dup3\n        /* \"#utility.yul\":4589:4682   */\n      tag_58\n      jump\t// in\n    tag_111:\n        /* \"#utility.yul\":4707:4709   */\n      0x20\n        /* \"#utility.yul\":4702:4705   */\n      dup3\n        /* \"#utility.yul\":4698:4710   */\n      add\n        /* \"#utility.yul\":4691:4710   */\n      swap1\n      pop\n        /* \"#utility.yul\":4350:4716   */\n      swap2\n      swap1\n      pop\n      jump\t// out\n        /* \"#utility.yul\":4722:5141   */\n    tag_34:\n        /* \"#utility.yul\":4888:4892   */\n      0x00\n        /* \"#utility.yul\":4926:4928   */\n      0x20\n        /* \"#utility.yul\":4915:4924   */\n      dup3\n        /* \"#utility.yul\":4911:4929   */\n      add\n        /* \"#utility.yul\":4903:4929   */\n      swap1\n      pop\n        /* \"#utility.yul\":4975:4984   */\n      dup2\n        /* \"#utility.yul\":4969:4973   */\n      dup2\n        /* \"#utility.yul\":4965:4985   */\n      sub\n        /* \"#utility.yul\":4961:4962   */\n      0x00\n        /* \"#utility.yul\":4950:4959   */\n      dup4\n        /* \"#utility.yul\":4946:4963   */\n      add\n        /* \"#utility.yul\":4939:4986   */\n      mstore\n        /* \"#utility.yul\":5003:5134   */\n      tag_113\n        /* \"#utility.yul\":5129:5133   */\n      dup2\n        /* \"#utility.yul\":5003:5134   */\n      tag_59\n      jump\t// in\n    tag_113:\n        /* \"#utility.yul\":4995:5134   */\n      swap1\n      pop\n        /* \"#utility.yul\":4722:5141   */\n      swap2\n      swap1\n      pop\n      jump\t// out\n        /* \"#utility.yul\":5147:5479   */\n    tag_36:\n        /* \"#utility.yul\":5268:5272   */\n      0x00\n        /* \"#utility.yul\":5306:5308   */\n      0x40\n        /* \"#utility.yul\":5295:5304   */\n      dup3\n        /* \"#utility.yul\":5291:5309   */\n      add\n        /* \"#utility.yul\":5283:5309   */\n      swap1\n      pop\n        /* \"#utility.yul\":5319:5390   */\n      tag_115\n        /* \"#utility.yul\":5387:5388   */\n      0x00\n        /* \"#utility.yul\":5376:5385   */\n      dup4\n        /* \"#utility.yul\":5372:5389   */\n      add\n        /* \"#utility.yul\":5363:5369   */\n      dup6\n        /* \"#utility.yul\":5319:5390   */\n      tag_43\n      jump\t// in\n    tag_115:\n        /* \"#utility.yul\":5400:5472   */\n      tag_116\n        /* \"#utility.yul\":5468:5470   */\n      0x20\n        /* \"#utility.yul\":5457:5466   */\n      dup4\n        /* \"#utility.yul\":5453:5471   */\n      add\n        /* \"#utility.yul\":5444:5450   */\n      dup5\n        /* \"#utility.yul\":5400:5472   */\n      tag_52\n      jump\t// in\n    tag_116:\n        /* \"#utility.yul\":5147:5479   */\n      swap4\n      swap3\n      pop\n      pop\n      pop\n      jump\t// out\n        /* \"#utility.yul\":5485:5601   */\n    tag_60:\n        /* \"#utility.yul\":5555:5576   */\n      tag_118\n        /* \"#utility.yul\":5570:5575   */\n      dup2\n        /* \"#utility.yul\":5555:5576   */\n      tag_49\n      jump\t// in\n    tag_118:\n        /* \"#utility.yul\":5548:5553   */\n      dup2\n        /* \"#utility.yul\":5545:5577   */\n      eq\n        /* \"#utility.yul\":5535:5595   */\n      tag_119\n      jumpi\n        /* \"#utility.yul\":5591:5592   */\n      0x00\n        /* \"#utility.yul\":5588:5589   */\n      dup1\n        /* \"#utility.yul\":5581:5593   */\n      revert\n        /* \"#utility.yul\":5535:5595   */\n    tag_119:\n        /* \"#utility.yul\":5485:5601   */\n      pop\n      jump\t// out\n        /* \"#utility.yul\":5607:5744   */\n    tag_61:\n        /* \"#utility.yul\":5661:5666   */\n      0x00\n        /* \"#utility.yul\":5692:5698   */\n      dup2\n        /* \"#utility.yul\":5686:5699   */\n      mload\n        /* \"#utility.yul\":5677:5699   */\n      swap1\n      pop\n        /* \"#utility.yul\":5708:5738   */\n      tag_121\n        /* \"#utility.yul\":5732:5737   */\n      dup2\n        /* \"#utility.yul\":5708:5738   */\n      tag_60\n      jump\t// in\n    tag_121:\n        /* \"#utility.yul\":5607:5744   */\n      swap3\n      swap2\n      pop\n      pop\n      jump\t// out\n        /* \"#utility.yul\":5750:6095   */\n    tag_40:\n        /* \"#utility.yul\":5817:5823   */\n      0x00\n        /* \"#utility.yul\":5866:5868   */\n      0x20\n        /* \"#utility.yul\":5854:5863   */\n      dup3\n        /* \"#utility.yul\":5845:5852   */\n      dup5\n        /* \"#utility.yul\":5841:5864   */\n      sub\n        /* \"#utility.yul\":5837:5869   */\n      slt\n        /* \"#utility.yul\":5834:5953   */\n      iszero\n      tag_123\n      jumpi\n        /* \"#utility.yul\":5872:5951   */\n      tag_124\n      tag_45\n      jump\t// in\n    tag_124:\n        /* \"#utility.yul\":5834:5953   */\n    tag_123:\n        /* \"#utility.yul\":5992:5993   */\n      0x00\n        /* \"#utility.yul\":6017:6078   */\n      tag_125\n        /* \"#utility.yul\":6070:6077   */\n      dup5\n        /* \"#utility.yul\":6061:6067   */\n      dup3\n        /* \"#utility.yul\":6050:6059   */\n      dup6\n        /* \"#utility.yul\":6046:6068   */\n      add\n        /* \"#utility.yul\":6017:6078   */\n      tag_61\n      jump\t// in\n    tag_125:\n        /* \"#utility.yul\":6007:6078   */\n      swap2\n      pop\n        /* \"#utility.yul\":5963:6088   */\n      pop\n        /* \"#utility.yul\":5750:6095   */\n      swap3\n      swap2\n      pop\n      pop\n      jump\t// out\n\n    auxdata: 0xa2646970667358221220a54b706043ad2b1028b38a414c4147af7eed6f33ddd812ad3df6414d0c401c8964736f6c63430008120033\n}\n",
				"bytecode": {
					"linkReferences": {},
					"object": "60806040526103e860005534801561001657600080fd5b506040516107e33803806107e3833981810160405281019061003891906100e2565b80600160006101000a81548173ffffffffffffffffffffffffffffffffffffffff021916908373ffffffffffffffffffffffffffffffffffffffff1602179055505061010f565b600080fd5b600073ffffffffffffffffffffffffffffffffffffffff82169050919050565b60006100af82610084565b9050919050565b6100bf816100a4565b81146100ca57600080fd5b50565b6000815190506100dc816100b6565b92915050565b6000602082840312156100f8576100f761007f565b5b6000610106848285016100cd565b91505092915050565b6106c58061011e6000396000f3fe608060405234801561001057600080fd5b506004361061004c5760003560e01c8063359cf2b71461005157806355a373d61461005b5780635e33dba9146100795780639ad2cd14146100a9575b600080fd5b6100596100c7565b005b61006361035b565b60405161007091906103e8565b60405180910390f35b610093600480360381019061008e9190610434565b610381565b6040516100a0919061047c565b60405180910390f35b6100b16103a1565b6040516100be91906104b0565b60405180910390f35b600260003373ffffffffffffffffffffffffffffffffffffffff1673ffffffffffffffffffffffffffffffffffffffff16815260200190815260200160002060009054906101000a900460ff1615610154576040517f08c379a000000000000000000000000000000000000000000000000000000000815260040161014b90610528565b60405180910390fd5b6000600160009054906101000a900473ffffffffffffffffffffffffffffffffffffffff1690506000548173ffffffffffffffffffffffffffffffffffffffff166370a08231306040518263ffffffff1660e01b81526004016101b791906103e8565b602060405180830381865afa1580156101d4573d6000803e3d6000fd5b505050506040513d601f19601f820116820180604052508101906101f89190610574565b1015610239576040517f08c379a0000000000000000000000000000000000000000000000000000000008152600401610230906105ed565b60405180910390fd5b8073ffffffffffffffffffffffffffffffffffffffff1663a9059cbb336000546040518363ffffffff1660e01b815260040161027692919061060d565b6020604051808303816000875af1158015610295573d6000803e3d6000fd5b505050506040513d601f19601f820116820180604052508101906102b99190610662565b506001600260003373ffffffffffffffffffffffffffffffffffffffff1673ffffffffffffffffffffffffffffffffffffffff16815260200190815260200160002060006101000a81548160ff0219169083151502179055506000543373ffffffffffffffffffffffffffffffffffffffff167f916800025d85907d1e91e112659a8e7e77a17ea4de231b05f15bb381d3bfde6160405160405180910390a350565b600160009054906101000a900473ffffffffffffffffffffffffffffffffffffffff1681565b60026020528060005260406000206000915054906101000a900460ff1681565b60005481565b600073ffffffffffffffffffffffffffffffffffffffff82169050919050565b60006103d2826103a7565b9050919050565b6103e2816103c7565b82525050565b60006020820190506103fd60008301846103d9565b92915050565b600080fd5b610411816103c7565b811461041c57600080fd5b50565b60008135905061042e81610408565b92915050565b60006020828403121561044a57610449610403565b5b60006104588482850161041f565b91505092915050565b60008115159050919050565b61047681610461565b82525050565b6000602082019050610491600083018461046d565b92915050565b6000819050919050565b6104aa81610497565b82525050565b60006020820190506104c560008301846104a1565b92915050565b600082825260208201905092915050565b7f43616e27742052657175657374204d756c7469706c652054696d657321000000600082015250565b6000610512601d836104cb565b915061051d826104dc565b602082019050919050565b6000602082019050818103600083015261054181610505565b9050919050565b61055181610497565b811461055c57600080fd5b50565b60008151905061056e81610548565b92915050565b60006020828403121561058a57610589610403565b5b60006105988482850161055f565b91505092915050565b7f46617563657420456d7074792100000000000000000000000000000000000000600082015250565b60006105d7600d836104cb565b91506105e2826105a1565b602082019050919050565b60006020820190508181036000830152610606816105ca565b9050919050565b600060408201905061062260008301856103d9565b61062f60208301846104a1565b9392505050565b61063f81610461565b811461064a57600080fd5b50565b60008151905061065c81610636565b92915050565b60006020828403121561067857610677610403565b5b60006106868482850161064d565b9150509291505056fea2646970667358221220a54b706043ad2b1028b38a414c4147af7eed6f33ddd812ad3df6414d0c401c8964736f6c63430008120033",
					"opcodes": "PUSH1 0x80 PUSH1 0x40 MSTORE PUSH2 0x3E8 PUSH1 0x0 SSTORE CALLVALUE DUP1 ISZERO PUSH2 0x16 JUMPI PUSH1 0x0 DUP1 REVERT JUMPDEST POP PUSH1 0x40 MLOAD PUSH2 0x7E3 CODESIZE SUB DUP1 PUSH2 0x7E3 DUP4 CODECOPY DUP2 DUP2 ADD PUSH1 0x40 MSTORE DUP2 ADD SWAP1 PUSH2 0x38 SWAP2 SWAP1 PUSH2 0xE2 JUMP JUMPDEST DUP1 PUSH1 0x1 PUSH1 0x0 PUSH2 0x100 EXP DUP2 SLOAD DUP2 PUSH20 0xFFFFFFFFFFFFFFFFFFFFFFFFFFFFFFFFFFFFFFFF MUL NOT AND SWAP1 DUP4 PUSH20 0xFFFFFFFFFFFFFFFFFFFFFFFFFFFFFFFFFFFFFFFF AND MUL OR SWAP1 SSTORE POP POP PUSH2 0x10F JUMP JUMPDEST PUSH1 0x0 DUP1 REVERT JUMPDEST PUSH1 0x0 PUSH20 0xFFFFFFFFFFFFFFFFFFFFFFFFFFFFFFFFFFFFFFFF DUP3 AND SWAP1 POP SWAP2 SWAP1 POP JUMP JUMPDEST PUSH1 0x0 PUSH2 0xAF DUP3 PUSH2 0x84 JUMP JUMPDEST SWAP1 POP SWAP2 SWAP1 POP JUMP JUMPDEST PUSH2 0xBF DUP2 PUSH2 0xA4 JUMP JUMPDEST DUP2 EQ PUSH2 0xCA JUMPI PUSH1 0x0 DUP1 REVERT JUMPDEST POP JUMP JUMPDEST PUSH1 0x0 DUP2 MLOAD SWAP1 POP PUSH2 0xDC DUP2 PUSH2 0xB6 JUMP JUMPDEST SWAP3 SWAP2 POP POP JUMP JUMPDEST PUSH1 0x0 PUSH1 0x20 DUP3 DUP5 SUB SLT ISZERO PUSH2 0xF8 JUMPI PUSH2 0xF7 PUSH2 0x7F JUMP JUMPDEST JUMPDEST PUSH1 0x0 PUSH2 0x106 DUP5 DUP3 DUP6 ADD PUSH2 0xCD JUMP JUMPDEST SWAP2 POP POP SWAP3 SWAP2 POP POP JUMP JUMPDEST PUSH2 0x6C5 DUP1 PUSH2 0x11E PUSH1 0x0 CODECOPY PUSH1 0x0 RETURN INVALID PUSH1 0x80 PUSH1 0x40 MSTORE CALLVALUE DUP1 ISZERO PUSH2 0x10 JUMPI PUSH1 0x0 DUP1 REVERT JUMPDEST POP PUSH1 0x4 CALLDATASIZE LT PUSH2 0x4C JUMPI PUSH1 0x0 CALLDATALOAD PUSH1 0xE0 SHR DUP1 PUSH4 0x359CF2B7 EQ PUSH2 0x51 JUMPI DUP1 PUSH4 0x55A373D6 EQ PUSH2 0x5B JUMPI DUP1 PUSH4 0x5E33DBA9 EQ PUSH2 0x79 JUMPI DUP1 PUSH4 0x9AD2CD14 EQ PUSH2 0xA9 JUMPI JUMPDEST PUSH1 0x0 DUP1 REVERT JUMPDEST PUSH2 0x59 PUSH2 0xC7 JUMP JUMPDEST STOP JUMPDEST PUSH2 0x63 PUSH2 0x35B JUMP JUMPDEST PUSH1 0x40 MLOAD PUSH2 0x70 SWAP2 SWAP1 PUSH2 0x3E8 JUMP JUMPDEST PUSH1 0x40 MLOAD DUP1 SWAP2 SUB SWAP1 RETURN JUMPDEST PUSH2 0x93 PUSH1 0x4 DUP1 CALLDATASIZE SUB DUP2 ADD SWAP1 PUSH2 0x8E SWAP2 SWAP1 PUSH2 0x434 JUMP JUMPDEST PUSH2 0x381 JUMP JUMPDEST PUSH1 0x40 MLOAD PUSH2 0xA0 SWAP2 SWAP1 PUSH2 0x47C JUMP JUMPDEST PUSH1 0x40 MLOAD DUP1 SWAP2 SUB SWAP1 RETURN JUMPDEST PUSH2 0xB1 PUSH2 0x3A1 JUMP JUMPDEST PUSH1 0x40 MLOAD PUSH2 0xBE SWAP2 SWAP1 PUSH2 0x4B0 JUMP JUMPDEST PUSH1 0x40 MLOAD DUP1 SWAP2 SUB SWAP1 RETURN JUMPDEST PUSH1 0x2 PUSH1 0x0 CALLER PUSH20 0xFFFFFFFFFFFFFFFFFFFFFFFFFFFFFFFFFFFFFFFF AND PUSH20 0xFFFFFFFFFFFFFFFFFFFFFFFFFFFFFFFFFFFFFFFF AND DUP2 MSTORE PUSH1 0x20 ADD SWAP1 DUP2 MSTORE PUSH1 0x20 ADD PUSH1 0x0 KECCAK256 PUSH1 0x0 SWAP1 SLOAD SWAP1 PUSH2 0x100 EXP SWAP1 DIV PUSH1 0xFF AND ISZERO PUSH2 0x154 JUMPI PUSH1 0x40 MLOAD PUSH32 0x8C379A000000000000000000000000000000000000000000000000000000000 DUP2 MSTORE PUSH1 0x4 ADD PUSH2 0x14B SWAP1 PUSH2 0x528 JUMP JUMPDEST PUSH1 0x40 MLOAD DUP1 SWAP2 SUB SWAP1 REVERT JUMPDEST PUSH1 0x0 PUSH1 0x1 PUSH1 0x0 SWAP1 SLOAD SWAP1 PUSH2 0x100 EXP SWAP1 DIV PUSH20 0xFFFFFFFFFFFFFFFFFFFFFFFFFFFFFFFFFFFFFFFF AND SWAP1 POP PUSH1 0x0 SLOAD DUP2 PUSH20 0xFFFFFFFFFFFFFFFFFFFFFFFFFFFFFFFFFFFFFFFF AND PUSH4 0x70A08231 ADDRESS PUSH1 0x40 MLOAD DUP3 PUSH4 0xFFFFFFFF AND PUSH1 0xE0 SHL DUP2 MSTORE PUSH1 0x4 ADD PUSH2 0x1B7 SWAP2 SWAP1 PUSH2 0x3E8 JUMP JUMPDEST PUSH1 0x20 PUSH1 0x40 MLOAD DUP1 DUP4 SUB DUP2 DUP7 GAS STATICCALL ISZERO DUP1 ISZERO PUSH2 0x1D4 JUMPI RETURNDATASIZE PUSH1 0x0 DUP1 RETURNDATACOPY RETURNDATASIZE PUSH1 0x0 REVERT JUMPDEST POP POP POP POP PUSH1 0x40 MLOAD RETURNDATASIZE PUSH1 0x1F NOT PUSH1 0x1F DUP3 ADD AND DUP3 ADD DUP1 PUSH1 0x40 MSTORE POP DUP2 ADD SWAP1 PUSH2 0x1F8 SWAP2 SWAP1 PUSH2 0x574 JUMP JUMPDEST LT ISZERO PUSH2 0x239 JUMPI PUSH1 0x40 MLOAD PUSH32 0x8C379A000000000000000000000000000000000000000000000000000000000 DUP2 MSTORE PUSH1 0x4 ADD PUSH2 0x230 SWAP1 PUSH2 0x5ED JUMP JUMPDEST PUSH1 0x40 MLOAD DUP1 SWAP2 SUB SWAP1 REVERT JUMPDEST DUP1 PUSH20 0xFFFFFFFFFFFFFFFFFFFFFFFFFFFFFFFFFFFFFFFF AND PUSH4 0xA9059CBB CALLER PUSH1 0x0 SLOAD PUSH1 0x40 MLOAD DUP4 PUSH4 0xFFFFFFFF AND PUSH1 0xE0 SHL DUP2 MSTORE PUSH1 0x4 ADD PUSH2 0x276 SWAP3 SWAP2 SWAP1 PUSH2 0x60D JUMP JUMPDEST PUSH1 0x20 PUSH1 0x40 MLOAD DUP1 DUP4 SUB DUP2 PUSH1 0x0 DUP8 GAS CALL ISZERO DUP1 ISZERO PUSH2 0x295 JUMPI RETURNDATASIZE PUSH1 0x0 DUP1 RETURNDATACOPY RETURNDATASIZE PUSH1 0x0 REVERT JUMPDEST POP POP POP POP PUSH1 0x40 MLOAD RETURNDATASIZE PUSH1 0x1F NOT PUSH1 0x1F DUP3 ADD AND DUP3 ADD DUP1 PUSH1 0x40 MSTORE POP DUP2 ADD SWAP1 PUSH2 0x2B9 SWAP2 SWAP1 PUSH2 0x662 JUMP JUMPDEST POP PUSH1 0x1 PUSH1 0x2 PUSH1 0x0 CALLER PUSH20 0xFFFFFFFFFFFFFFFFFFFFFFFFFFFFFFFFFFFFFFFF AND PUSH20 0xFFFFFFFFFFFFFFFFFFFFFFFFFFFFFFFFFFFFFFFF AND DUP2 MSTORE PUSH1 0x20 ADD SWAP1 DUP2 MSTORE PUSH1 0x20 ADD PUSH1 0x0 KECCAK256 PUSH1 0x0 PUSH2 0x100 EXP DUP2 SLOAD DUP2 PUSH1 0xFF MUL NOT AND SWAP1 DUP4 ISZERO ISZERO MUL OR SWAP1 SSTORE POP PUSH1 0x0 SLOAD CALLER PUSH20 0xFFFFFFFFFFFFFFFFFFFFFFFFFFFFFFFFFFFFFFFF AND PUSH32 0x916800025D85907D1E91E112659A8E7E77A17EA4DE231B05F15BB381D3BFDE61 PUSH1 0x40 MLOAD PUSH1 0x40 MLOAD DUP1 SWAP2 SUB SWAP1 LOG3 POP JUMP JUMPDEST PUSH1 0x1 PUSH1 0x0 SWAP1 SLOAD SWAP1 PUSH2 0x100 EXP SWAP1 DIV PUSH20 0xFFFFFFFFFFFFFFFFFFFFFFFFFFFFFFFFFFFFFFFF AND DUP2 JUMP JUMPDEST PUSH1 0x2 PUSH1 0x20 MSTORE DUP1 PUSH1 0x0 MSTORE PUSH1 0x40 PUSH1 0x0 KECCAK256 PUSH1 0x0 SWAP2 POP SLOAD SWAP1 PUSH2 0x100 EXP SWAP1 DIV PUSH1 0xFF AND DUP2 JUMP JUMPDEST PUSH1 0x0 SLOAD DUP2 JUMP JUMPDEST PUSH1 0x0 PUSH20 0xFFFFFFFFFFFFFFFFFFFFFFFFFFFFFFFFFFFFFFFF DUP3 AND SWAP1 POP SWAP2 SWAP1 POP JUMP JUMPDEST PUSH1 0x0 PUSH2 0x3D2 DUP3 PUSH2 0x3A7 JUMP JUMPDEST SWAP1 POP SWAP2 SWAP1 POP JUMP JUMPDEST PUSH2 0x3E2 DUP2 PUSH2 0x3C7 JUMP JUMPDEST DUP3 MSTORE POP POP JUMP JUMPDEST PUSH1 0x0 PUSH1 0x20 DUP3 ADD SWAP1 POP PUSH2 0x3FD PUSH1 0x0 DUP4 ADD DUP5 PUSH2 0x3D9 JUMP JUMPDEST SWAP3 SWAP2 POP POP JUMP JUMPDEST PUSH1 0x0 DUP1 REVERT JUMPDEST PUSH2 0x411 DUP2 PUSH2 0x3C7 JUMP JUMPDEST DUP2 EQ PUSH2 0x41C JUMPI PUSH1 0x0 DUP1 REVERT JUMPDEST POP JUMP JUMPDEST PUSH1 0x0 DUP2 CALLDATALOAD SWAP1 POP PUSH2 0x42E DUP2 PUSH2 0x408 JUMP JUMPDEST SWAP3 SWAP2 POP POP JUMP JUMPDEST PUSH1 0x0 PUSH1 0x20 DUP3 DUP5 SUB SLT ISZERO PUSH2 0x44A JUMPI PUSH2 0x449 PUSH2 0x403 JUMP JUMPDEST JUMPDEST PUSH1 0x0 PUSH2 0x458 DUP5 DUP3 DUP6 ADD PUSH2 0x41F JUMP JUMPDEST SWAP2 POP POP SWAP3 SWAP2 POP POP JUMP JUMPDEST PUSH1 0x0 DUP2 ISZERO ISZERO SWAP1 POP SWAP2 SWAP1 POP JUMP JUMPDEST PUSH2 0x476 DUP2 PUSH2 0x461 JUMP JUMPDEST DUP3 MSTORE POP POP JUMP JUMPDEST PUSH1 0x0 PUSH1 0x20 DUP3 ADD SWAP1 POP PUSH2 0x491 PUSH1 0x0 DUP4 ADD DUP5 PUSH2 0x46D JUMP JUMPDEST SWAP3 SWAP2 POP POP JUMP JUMPDEST PUSH1 0x0 DUP2 SWAP1 POP SWAP2 SWAP1 POP JUMP JUMPDEST PUSH2 0x4AA DUP2 PUSH2 0x497 JUMP JUMPDEST DUP3 MSTORE POP POP JUMP JUMPDEST PUSH1 0x0 PUSH1 0x20 DUP3 ADD SWAP1 POP PUSH2 0x4C5 PUSH1 0x0 DUP4 ADD DUP5 PUSH2 0x4A1 JUMP JUMPDEST SWAP3 SWAP2 POP POP JUMP JUMPDEST PUSH1 0x0 DUP3 DUP3 MSTORE PUSH1 0x20 DUP3 ADD SWAP1 POP SWAP3 SWAP2 POP POP JUMP JUMPDEST PUSH32 0x43616E27742052657175657374204D756C7469706C652054696D657321000000 PUSH1 0x0 DUP3 ADD MSTORE POP JUMP JUMPDEST PUSH1 0x0 PUSH2 0x512 PUSH1 0x1D DUP4 PUSH2 0x4CB JUMP JUMPDEST SWAP2 POP PUSH2 0x51D DUP3 PUSH2 0x4DC JUMP JUMPDEST PUSH1 0x20 DUP3 ADD SWAP1 POP SWAP2 SWAP1 POP JUMP JUMPDEST PUSH1 0x0 PUSH1 0x20 DUP3 ADD SWAP1 POP DUP2 DUP2 SUB PUSH1 0x0 DUP4 ADD MSTORE PUSH2 0x541 DUP2 PUSH2 0x505 JUMP JUMPDEST SWAP1 POP SWAP2 SWAP1 POP JUMP JUMPDEST PUSH2 0x551 DUP2 PUSH2 0x497 JUMP JUMPDEST DUP2 EQ PUSH2 0x55C JUMPI PUSH1 0x0 DUP1 REVERT JUMPDEST POP JUMP JUMPDEST PUSH1 0x0 DUP2 MLOAD SWAP1 POP PUSH2 0x56E DUP2 PUSH2 0x548 JUMP JUMPDEST SWAP3 SWAP2 POP POP JUMP JUMPDEST PUSH1 0x0 PUSH1 0x20 DUP3 DUP5 SUB SLT ISZERO PUSH2 0x58A JUMPI PUSH2 0x589 PUSH2 0x403 JUMP JUMPDEST JUMPDEST PUSH1 0x0 PUSH2 0x598 DUP5 DUP3 DUP6 ADD PUSH2 0x55F JUMP JUMPDEST SWAP2 POP POP SWAP3 SWAP2 POP POP JUMP JUMPDEST PUSH32 0x46617563657420456D7074792100000000000000000000000000000000000000 PUSH1 0x0 DUP3 ADD MSTORE POP JUMP JUMPDEST PUSH1 0x0 PUSH2 0x5D7 PUSH1 0xD DUP4 PUSH2 0x4CB JUMP JUMPDEST SWAP2 POP PUSH2 0x5E2 DUP3 PUSH2 0x5A1 JUMP JUMPDEST PUSH1 0x20 DUP3 ADD SWAP1 POP SWAP2 SWAP1 POP JUMP JUMPDEST PUSH1 0x0 PUSH1 0x20 DUP3 ADD SWAP1 POP DUP2 DUP2 SUB PUSH1 0x0 DUP4 ADD MSTORE PUSH2 0x606 DUP2 PUSH2 0x5CA JUMP JUMPDEST SWAP1 POP SWAP2 SWAP1 POP JUMP JUMPDEST PUSH1 0x0 PUSH1 0x40 DUP3 ADD SWAP1 POP PUSH2 0x622 PUSH1 0x0 DUP4 ADD DUP6 PUSH2 0x3D9 JUMP JUMPDEST PUSH2 0x62F PUSH1 0x20 DUP4 ADD DUP5 PUSH2 0x4A1 JUMP JUMPDEST SWAP4 SWAP3 POP POP POP JUMP JUMPDEST PUSH2 0x63F DUP2 PUSH2 0x461 JUMP JUMPDEST DUP2 EQ PUSH2 0x64A JUMPI PUSH1 0x0 DUP1 REVERT JUMPDEST POP JUMP JUMPDEST PUSH1 0x0 DUP2 MLOAD SWAP1 POP PUSH2 0x65C DUP2 PUSH2 0x636 JUMP JUMPDEST SWAP3 SWAP2 POP POP JUMP JUMPDEST PUSH1 0x0 PUSH1 0x20 DUP3 DUP5 SUB SLT ISZERO PUSH2 0x678 JUMPI PUSH2 0x677 PUSH2 0x403 JUMP JUMPDEST JUMPDEST PUSH1 0x0 PUSH2 0x686 DUP5 DUP3 DUP6 ADD PUSH2 0x64D JUMP JUMPDEST SWAP2 POP POP SWAP3 SWAP2 POP POP JUMP INVALID LOG2 PUSH5 0x6970667358 0x22 SLT KECCAK256 0xA5 0x4B PUSH17 0x6043AD2B1028B38A414C4147AF7EED6F33 0xDD 0xD8 SLT 0xAD RETURNDATASIZE 0xF6 COINBASE 0x4D 0xC BLOCKHASH SHR DUP10 PUSH5 0x736F6C6343 STOP ADDMOD SLT STOP CALLER "
				},
				"gasEstimates": {
					"creation": {
						"codeDepositCost": "346600",
						"executionCost": "infinite",
						"totalCost": "infinite"
					},
					"external": {
						"amountAllowed()": "2473",
						"requestTokens()": "infinite",
						"requestedAddress(address)": "2867",
						"tokenContract()": "2514"
					}
				},
				"methodIdentifiers": {
					"amountAllowed()": "9ad2cd14",
					"requestTokens()": "359cf2b7",
					"requestedAddress(address)": "5e33dba9",
					"tokenContract()": "55a373d6"
				}
			},
			"storageLayout": {
				"storage": [
					{
						"astId": 204,
						"contract": "2_Faucet/Faucet.sol:Faucet",
						"label": "amountAllowed",
						"offset": 0,
						"slot": "0",
						"type": "t_uint256"
					},
					{
						"astId": 206,
						"contract": "2_Faucet/Faucet.sol:Faucet",
						"label": "tokenContract",
						"offset": 0,
						"slot": "1",
						"type": "t_address"
					},
					{
						"astId": 210,
						"contract": "2_Faucet/Faucet.sol:Faucet",
						"label": "requestedAddress",
						"offset": 0,
						"slot": "2",
						"type": "t_mapping(t_address,t_bool)"
					}
				],
				"types": {
					"t_address": {
						"encoding": "inplace",
						"label": "address",
						"numberOfBytes": "20"
					},
					"t_bool": {
						"encoding": "inplace",
						"label": "bool",
						"numberOfBytes": "1"
					},
					"t_mapping(t_address,t_bool)": {
						"encoding": "mapping",
						"key": "t_address",
						"label": "mapping(address => bool)",
						"numberOfBytes": "32",
						"value": "t_bool"
					},
					"t_uint256": {
						"encoding": "inplace",
						"label": "uint256",
						"numberOfBytes": "32"
					}
				}
			},
			"userdoc": {
				"kind": "user",
				"methods": {},
				"version": 1
			}
		}
	}
}