{
	"3_Airdrop/Airdrop.sol": {
		"Airdrop": {
			"abi": [
				{
					"inputs": [
						{
							"internalType": "uint256[]",
							"name": "_arr",
							"type": "uint256[]"
						}
					],
					"name": "getSum",
					"outputs": [
						{
							"internalType": "uint256",
							"name": "sum",
							"type": "uint256"
						}
					],
					"stateMutability": "pure",
					"type": "function"
				},
				{
					"inputs": [
						{
							"internalType": "address payable[]",
							"name": "_addresses",
							"type": "address[]"
						},
						{
							"internalType": "uint256[]",
							"name": "_amounts",
							"type": "uint256[]"
						}
					],
					"name": "multiTransferETH",
					"outputs": [],
					"stateMutability": "payable",
					"type": "function"
				},
				{
					"inputs": [
						{
							"internalType": "address",
							"name": "_token",
							"type": "address"
						},
						{
							"internalType": "address[]",
							"name": "_addresses",
							"type": "address[]"
						},
						{
							"internalType": "uint256[]",
							"name": "_amounts",
							"type": "uint256[]"
						}
					],
					"name": "multiTransferToken",
					"outputs": [],
					"stateMutability": "nonpayable",
					"type": "function"
				}
			],
			"devdoc": {
				"kind": "dev",
				"methods": {
					"multiTransferToken(address,address[],uint256[])": {
						"params": {
							"_addresses": "空投地址数组",
							"_amounts": "代币数量数组（每个地址的空投数量）",
							"_token": "转账的ERC20代币地址"
						}
					}
				},
				"version": 1
			},
			"evm": {
				"assembly": "    /* \"3_Airdrop/Airdrop.sol\":153:2140  contract Airdrop {... */\n  mstore(0x40, 0x80)\n  callvalue\n  dup1\n  iszero\n  tag_1\n  jumpi\n  0x00\n  dup1\n  revert\ntag_1:\n  pop\n  dataSize(sub_0)\n  dup1\n  dataOffset(sub_0)\n  0x00\n  codecopy\n  0x00\n  return\nstop\n\nsub_0: assembly {\n        /* \"3_Airdrop/Airdrop.sol\":153:2140  contract Airdrop {... */\n      mstore(0x40, 0x80)\n      jumpi(tag_1, lt(calldatasize, 0x04))\n      shr(0xe0, calldataload(0x00))\n      dup1\n      0x41ed24a2\n      eq\n      tag_2\n      jumpi\n      dup1\n      0x77988cf8\n      eq\n      tag_3\n      jumpi\n      dup1\n      0xccb8c1e0\n      eq\n      tag_4\n      jumpi\n    tag_1:\n      0x00\n      dup1\n      revert\n        /* \"3_Airdrop/Airdrop.sol\":430:1252  function multiTransferToken(... */\n    tag_2:\n      callvalue\n      dup1\n      iszero\n      tag_5\n      jumpi\n      0x00\n      dup1\n      revert\n    tag_5:\n      pop\n      tag_6\n      0x04\n      dup1\n      calldatasize\n      sub\n      dup2\n      add\n      swap1\n      tag_7\n      swap2\n      swap1\n      tag_8\n      jump\t// in\n    tag_7:\n      tag_9\n      jump\t// in\n    tag_6:\n      stop\n        /* \"3_Airdrop/Airdrop.sol\":1291:1944  function multiTransferETH(... */\n    tag_3:\n      tag_10\n      0x04\n      dup1\n      calldatasize\n      sub\n      dup2\n      add\n      swap1\n      tag_11\n      swap2\n      swap1\n      tag_12\n      jump\t// in\n    tag_11:\n      tag_13\n      jump\t// in\n    tag_10:\n      stop\n        /* \"3_Airdrop/Airdrop.sol\":1977:2138  function getSum(uint256[] calldata _arr) public pure returns(uint sum)... */\n    tag_4:\n      callvalue\n      dup1\n      iszero\n      tag_14\n      jumpi\n      0x00\n      dup1\n      revert\n    tag_14:\n      pop\n      tag_15\n      0x04\n      dup1\n      calldatasize\n      sub\n      dup2\n      add\n      swap1\n      tag_16\n      swap2\n      swap1\n      tag_17\n      jump\t// in\n    tag_16:\n      tag_18\n      jump\t// in\n    tag_15:\n      mload(0x40)\n      tag_19\n      swap2\n      swap1\n      tag_20\n      jump\t// in\n    tag_19:\n      mload(0x40)\n      dup1\n      swap2\n      sub\n      swap1\n      return\n        /* \"3_Airdrop/Airdrop.sol\":430:1252  function multiTransferToken(... */\n    tag_9:\n        /* \"3_Airdrop/Airdrop.sol\":679:687  _amounts */\n      dup2\n      dup2\n        /* \"3_Airdrop/Airdrop.sol\":679:694  _amounts.length */\n      swap1\n      pop\n        /* \"3_Airdrop/Airdrop.sol\":658:668  _addresses */\n      dup5\n      dup5\n        /* \"3_Airdrop/Airdrop.sol\":658:675  _addresses.length */\n      swap1\n      pop\n        /* \"3_Airdrop/Airdrop.sol\":658:694  _addresses.length == _amounts.length */\n      eq\n        /* \"3_Airdrop/Airdrop.sol\":650:741  require(_addresses.length == _amounts.length, \"Lengths of Addresses and Amounts NOT EQUAL\") */\n      tag_22\n      jumpi\n      mload(0x40)\n      0x08c379a000000000000000000000000000000000000000000000000000000000\n      dup2\n      mstore\n      0x04\n      add\n      tag_23\n      swap1\n      tag_24\n      jump\t// in\n    tag_23:\n      mload(0x40)\n      dup1\n      swap2\n      sub\n      swap1\n      revert\n    tag_22:\n        /* \"3_Airdrop/Airdrop.sol\":751:763  IERC20 token */\n      0x00\n        /* \"3_Airdrop/Airdrop.sol\":773:779  _token */\n      dup6\n        /* \"3_Airdrop/Airdrop.sol\":751:780  IERC20 token = IERC20(_token) */\n      swap1\n      pop\n        /* \"3_Airdrop/Airdrop.sol\":816:831  uint _amountSum */\n      0x00\n        /* \"3_Airdrop/Airdrop.sol\":834:850  getSum(_amounts) */\n      tag_25\n        /* \"3_Airdrop/Airdrop.sol\":841:849  _amounts */\n      dup5\n      dup5\n        /* \"3_Airdrop/Airdrop.sol\":834:840  getSum */\n      tag_18\n        /* \"3_Airdrop/Airdrop.sol\":834:850  getSum(_amounts) */\n      jump\t// in\n    tag_25:\n        /* \"3_Airdrop/Airdrop.sol\":816:850  uint _amountSum = getSum(_amounts) */\n      swap1\n      pop\n        /* \"3_Airdrop/Airdrop.sol\":1001:1011  _amountSum */\n      dup1\n        /* \"3_Airdrop/Airdrop.sol\":956:961  token */\n      dup3\n        /* \"3_Airdrop/Airdrop.sol\":956:971  token.allowance */\n      0xffffffffffffffffffffffffffffffffffffffff\n      and\n      0xdd62ed3e\n        /* \"3_Airdrop/Airdrop.sol\":972:982  msg.sender */\n      caller\n        /* \"3_Airdrop/Airdrop.sol\":992:996  this */\n      address\n        /* \"3_Airdrop/Airdrop.sol\":956:998  token.allowance(msg.sender, address(this)) */\n      mload(0x40)\n      dup4\n      0xffffffff\n      and\n      0xe0\n      shl\n      dup2\n      mstore\n      0x04\n      add\n      tag_26\n      swap3\n      swap2\n      swap1\n      tag_27\n      jump\t// in\n    tag_26:\n      0x20\n      mload(0x40)\n      dup1\n      dup4\n      sub\n      dup2\n      dup7\n      gas\n      staticcall\n      iszero\n      dup1\n      iszero\n      tag_29\n      jumpi\n      returndatasize\n      0x00\n      dup1\n      returndatacopy\n      revert(0x00, returndatasize)\n    tag_29:\n      pop\n      pop\n      pop\n      pop\n      mload(0x40)\n      returndatasize\n      not(0x1f)\n      0x1f\n      dup3\n      add\n      and\n      dup3\n      add\n      dup1\n      0x40\n      mstore\n      pop\n      dup2\n      add\n      swap1\n      tag_30\n      swap2\n      swap1\n      tag_31\n      jump\t// in\n    tag_30:\n        /* \"3_Airdrop/Airdrop.sol\":956:1011  token.allowance(msg.sender, address(this)) > _amountSum */\n      gt\n        /* \"3_Airdrop/Airdrop.sol\":948:1040  require(token.allowance(msg.sender, address(this)) > _amountSum, \"Need Approve ERC20 token\") */\n      tag_32\n      jumpi\n      mload(0x40)\n      0x08c379a000000000000000000000000000000000000000000000000000000000\n      dup2\n      mstore\n      0x04\n      add\n      tag_33\n      swap1\n      tag_34\n      jump\t// in\n    tag_33:\n      mload(0x40)\n      dup1\n      swap2\n      sub\n      swap1\n      revert\n    tag_32:\n        /* \"3_Airdrop/Airdrop.sol\":1124:1133  uint256 i */\n      0x00\n        /* \"3_Airdrop/Airdrop.sol\":1119:1246  for (uint256 i; i < _addresses.length; i++) {... */\n    tag_35:\n        /* \"3_Airdrop/Airdrop.sol\":1139:1149  _addresses */\n      dup7\n      dup7\n        /* \"3_Airdrop/Airdrop.sol\":1139:1156  _addresses.length */\n      swap1\n      pop\n        /* \"3_Airdrop/Airdrop.sol\":1135:1136  i */\n      dup2\n        /* \"3_Airdrop/Airdrop.sol\":1135:1156  i < _addresses.length */\n      lt\n        /* \"3_Airdrop/Airdrop.sol\":1119:1246  for (uint256 i; i < _addresses.length; i++) {... */\n      iszero\n      tag_36\n      jumpi\n        /* \"3_Airdrop/Airdrop.sol\":1177:1182  token */\n      dup3\n        /* \"3_Airdrop/Airdrop.sol\":1177:1195  token.transferFrom */\n      0xffffffffffffffffffffffffffffffffffffffff\n      and\n      0x23b872dd\n        /* \"3_Airdrop/Airdrop.sol\":1196:1206  msg.sender */\n      caller\n        /* \"3_Airdrop/Airdrop.sol\":1208:1218  _addresses */\n      dup10\n      dup10\n        /* \"3_Airdrop/Airdrop.sol\":1219:1220  i */\n      dup6\n        /* \"3_Airdrop/Airdrop.sol\":1208:1221  _addresses[i] */\n      dup2\n      dup2\n      lt\n      tag_38\n      jumpi\n      tag_39\n      tag_40\n      jump\t// in\n    tag_39:\n    tag_38:\n      swap1\n      pop\n      0x20\n      mul\n      add\n      0x20\n      dup2\n      add\n      swap1\n      tag_41\n      swap2\n      swap1\n      tag_42\n      jump\t// in\n    tag_41:\n        /* \"3_Airdrop/Airdrop.sol\":1223:1231  _amounts */\n      dup9\n      dup9\n        /* \"3_Airdrop/Airdrop.sol\":1232:1233  i */\n      dup7\n        /* \"3_Airdrop/Airdrop.sol\":1223:1234  _amounts[i] */\n      dup2\n      dup2\n      lt\n      tag_43\n      jumpi\n      tag_44\n      tag_40\n      jump\t// in\n    tag_44:\n    tag_43:\n      swap1\n      pop\n      0x20\n      mul\n      add\n      calldataload\n        /* \"3_Airdrop/Airdrop.sol\":1177:1235  token.transferFrom(msg.sender, _addresses[i], _amounts[i]) */\n      mload(0x40)\n      dup5\n      0xffffffff\n      and\n      0xe0\n      shl\n      dup2\n      mstore\n      0x04\n      add\n      tag_45\n      swap4\n      swap3\n      swap2\n      swap1\n      tag_46\n      jump\t// in\n    tag_45:\n      0x20\n      mload(0x40)\n      dup1\n      dup4\n      sub\n      dup2\n      0x00\n      dup8\n      gas\n      call\n      iszero\n      dup1\n      iszero\n      tag_48\n      jumpi\n      returndatasize\n      0x00\n      dup1\n      returndatacopy\n      revert(0x00, returndatasize)\n    tag_48:\n      pop\n      pop\n      pop\n      pop\n      mload(0x40)\n      returndatasize\n      not(0x1f)\n      0x1f\n      dup3\n      add\n      and\n      dup3\n      add\n      dup1\n      0x40\n      mstore\n      pop\n      dup2\n      add\n      swap1\n      tag_49\n      swap2\n      swap1\n      tag_50\n      jump\t// in\n    tag_49:\n      pop\n        /* \"3_Airdrop/Airdrop.sol\":1158:1161  i++ */\n      dup1\n      dup1\n      tag_51\n      swap1\n      tag_52\n      jump\t// in\n    tag_51:\n      swap2\n      pop\n      pop\n        /* \"3_Airdrop/Airdrop.sol\":1119:1246  for (uint256 i; i < _addresses.length; i++) {... */\n      jump(tag_35)\n    tag_36:\n      pop\n        /* \"3_Airdrop/Airdrop.sol\":577:1252  {... */\n      pop\n      pop\n        /* \"3_Airdrop/Airdrop.sol\":430:1252  function multiTransferToken(... */\n      pop\n      pop\n      pop\n      pop\n      pop\n      jump\t// out\n        /* \"3_Airdrop/Airdrop.sol\":1291:1944  function multiTransferETH(... */\n    tag_13:\n        /* \"3_Airdrop/Airdrop.sol\":1524:1532  _amounts */\n      dup2\n      dup2\n        /* \"3_Airdrop/Airdrop.sol\":1524:1539  _amounts.length */\n      swap1\n      pop\n        /* \"3_Airdrop/Airdrop.sol\":1503:1513  _addresses */\n      dup5\n      dup5\n        /* \"3_Airdrop/Airdrop.sol\":1503:1520  _addresses.length */\n      swap1\n      pop\n        /* \"3_Airdrop/Airdrop.sol\":1503:1539  _addresses.length == _amounts.length */\n      eq\n        /* \"3_Airdrop/Airdrop.sol\":1495:1586  require(_addresses.length == _amounts.length, \"Lengths of Addresses and Amounts NOT EQUAL\") */\n      tag_54\n      jumpi\n      mload(0x40)\n      0x08c379a000000000000000000000000000000000000000000000000000000000\n      dup2\n      mstore\n      0x04\n      add\n      tag_55\n      swap1\n      tag_24\n      jump\t// in\n    tag_55:\n      mload(0x40)\n      dup1\n      swap2\n      sub\n      swap1\n      revert\n    tag_54:\n        /* \"3_Airdrop/Airdrop.sol\":1596:1611  uint _amountSum */\n      0x00\n        /* \"3_Airdrop/Airdrop.sol\":1614:1630  getSum(_amounts) */\n      tag_56\n        /* \"3_Airdrop/Airdrop.sol\":1621:1629  _amounts */\n      dup4\n      dup4\n        /* \"3_Airdrop/Airdrop.sol\":1614:1620  getSum */\n      tag_18\n        /* \"3_Airdrop/Airdrop.sol\":1614:1630  getSum(_amounts) */\n      jump\t// in\n    tag_56:\n        /* \"3_Airdrop/Airdrop.sol\":1596:1630  uint _amountSum = getSum(_amounts) */\n      swap1\n      pop\n        /* \"3_Airdrop/Airdrop.sol\":1731:1741  _amountSum */\n      dup1\n        /* \"3_Airdrop/Airdrop.sol\":1718:1727  msg.value */\n      callvalue\n        /* \"3_Airdrop/Airdrop.sol\":1718:1741  msg.value == _amountSum */\n      eq\n        /* \"3_Airdrop/Airdrop.sol\":1710:1767  require(msg.value == _amountSum, \"Transfer amount error\") */\n      tag_57\n      jumpi\n      mload(0x40)\n      0x08c379a000000000000000000000000000000000000000000000000000000000\n      dup2\n      mstore\n      0x04\n      add\n      tag_58\n      swap1\n      tag_59\n      jump\t// in\n    tag_58:\n      mload(0x40)\n      dup1\n      swap2\n      sub\n      swap1\n      revert\n    tag_57:\n        /* \"3_Airdrop/Airdrop.sol\":1835:1844  uint256 i */\n      0x00\n        /* \"3_Airdrop/Airdrop.sol\":1830:1938  for (uint256 i = 0; i < _addresses.length; i++) {... */\n    tag_60:\n        /* \"3_Airdrop/Airdrop.sol\":1854:1864  _addresses */\n      dup6\n      dup6\n        /* \"3_Airdrop/Airdrop.sol\":1854:1871  _addresses.length */\n      swap1\n      pop\n        /* \"3_Airdrop/Airdrop.sol\":1850:1851  i */\n      dup2\n        /* \"3_Airdrop/Airdrop.sol\":1850:1871  i < _addresses.length */\n      lt\n        /* \"3_Airdrop/Airdrop.sol\":1830:1938  for (uint256 i = 0; i < _addresses.length; i++) {... */\n      iszero\n      tag_61\n      jumpi\n        /* \"3_Airdrop/Airdrop.sol\":1892:1902  _addresses */\n      dup6\n      dup6\n        /* \"3_Airdrop/Airdrop.sol\":1903:1904  i */\n      dup3\n        /* \"3_Airdrop/Airdrop.sol\":1892:1905  _addresses[i] */\n      dup2\n      dup2\n      lt\n      tag_63\n      jumpi\n      tag_64\n      tag_40\n      jump\t// in\n    tag_64:\n    tag_63:\n      swap1\n      pop\n      0x20\n      mul\n      add\n      0x20\n      dup2\n      add\n      swap1\n      tag_65\n      swap2\n      swap1\n      tag_66\n      jump\t// in\n    tag_65:\n        /* \"3_Airdrop/Airdrop.sol\":1892:1914  _addresses[i].transfer */\n      0xffffffffffffffffffffffffffffffffffffffff\n      and\n        /* \"3_Airdrop/Airdrop.sol\":1892:1927  _addresses[i].transfer(_amounts[i]) */\n      0x08fc\n        /* \"3_Airdrop/Airdrop.sol\":1915:1923  _amounts */\n      dup6\n      dup6\n        /* \"3_Airdrop/Airdrop.sol\":1924:1925  i */\n      dup5\n        /* \"3_Airdrop/Airdrop.sol\":1915:1926  _amounts[i] */\n      dup2\n      dup2\n      lt\n      tag_67\n      jumpi\n      tag_68\n      tag_40\n      jump\t// in\n    tag_68:\n    tag_67:\n      swap1\n      pop\n      0x20\n      mul\n      add\n      calldataload\n        /* \"3_Airdrop/Airdrop.sol\":1892:1927  _addresses[i].transfer(_amounts[i]) */\n      swap1\n      dup2\n      iszero\n      mul\n      swap1\n      mload(0x40)\n      0x00\n      mload(0x40)\n      dup1\n      dup4\n      sub\n      dup2\n      dup6\n      dup9\n      dup9\n      call\n      swap4\n      pop\n      pop\n      pop\n      pop\n      iszero\n      dup1\n      iszero\n      tag_70\n      jumpi\n      returndatasize\n      0x00\n      dup1\n      returndatacopy\n      revert(0x00, returndatasize)\n    tag_70:\n      pop\n        /* \"3_Airdrop/Airdrop.sol\":1873:1876  i++ */\n      dup1\n      dup1\n      tag_71\n      swap1\n      tag_52\n      jump\t// in\n    tag_71:\n      swap2\n      pop\n      pop\n        /* \"3_Airdrop/Airdrop.sol\":1830:1938  for (uint256 i = 0; i < _addresses.length; i++) {... */\n      jump(tag_60)\n    tag_61:\n      pop\n        /* \"3_Airdrop/Airdrop.sol\":1422:1944  {... */\n      pop\n        /* \"3_Airdrop/Airdrop.sol\":1291:1944  function multiTransferETH(... */\n      pop\n      pop\n      pop\n      pop\n      jump\t// out\n        /* \"3_Airdrop/Airdrop.sol\":1977:2138  function getSum(uint256[] calldata _arr) public pure returns(uint sum)... */\n    tag_18:\n        /* \"3_Airdrop/Airdrop.sol\":2038:2046  uint sum */\n      0x00\n        /* \"3_Airdrop/Airdrop.sol\":2066:2072  uint i */\n      dup1\n        /* \"3_Airdrop/Airdrop.sol\":2075:2076  0 */\n      0x00\n        /* \"3_Airdrop/Airdrop.sol\":2066:2076  uint i = 0 */\n      swap1\n      pop\n        /* \"3_Airdrop/Airdrop.sol\":2062:2131  for(uint i = 0; i < _arr.length; i++)... */\n    tag_73:\n        /* \"3_Airdrop/Airdrop.sol\":2082:2086  _arr */\n      dup4\n      dup4\n        /* \"3_Airdrop/Airdrop.sol\":2082:2093  _arr.length */\n      swap1\n      pop\n        /* \"3_Airdrop/Airdrop.sol\":2078:2079  i */\n      dup2\n        /* \"3_Airdrop/Airdrop.sol\":2078:2093  i < _arr.length */\n      lt\n        /* \"3_Airdrop/Airdrop.sol\":2062:2131  for(uint i = 0; i < _arr.length; i++)... */\n      iszero\n      tag_74\n      jumpi\n        /* \"3_Airdrop/Airdrop.sol\":2124:2128  _arr */\n      dup4\n      dup4\n        /* \"3_Airdrop/Airdrop.sol\":2129:2130  i */\n      dup3\n        /* \"3_Airdrop/Airdrop.sol\":2124:2131  _arr[i] */\n      dup2\n      dup2\n      lt\n      tag_76\n      jumpi\n      tag_77\n      tag_40\n      jump\t// in\n    tag_77:\n    tag_76:\n      swap1\n      pop\n      0x20\n      mul\n      add\n      calldataload\n        /* \"3_Airdrop/Airdrop.sol\":2118:2121  sum */\n      dup3\n        /* \"3_Airdrop/Airdrop.sol\":2118:2131  sum + _arr[i] */\n      tag_78\n      swap2\n      swap1\n      tag_79\n      jump\t// in\n    tag_78:\n        /* \"3_Airdrop/Airdrop.sol\":2112:2131  sum = sum + _arr[i] */\n      swap2\n      pop\n        /* \"3_Airdrop/Airdrop.sol\":2095:2098  i++ */\n      dup1\n      dup1\n      tag_80\n      swap1\n      tag_52\n      jump\t// in\n    tag_80:\n      swap2\n      pop\n      pop\n        /* \"3_Airdrop/Airdrop.sol\":2062:2131  for(uint i = 0; i < _arr.length; i++)... */\n      jump(tag_73)\n    tag_74:\n      pop\n        /* \"3_Airdrop/Airdrop.sol\":1977:2138  function getSum(uint256[] calldata _arr) public pure returns(uint sum)... */\n      swap3\n      swap2\n      pop\n      pop\n      jump\t// out\n        /* \"#utility.yul\":88:205   */\n    tag_82:\n        /* \"#utility.yul\":197:198   */\n      0x00\n        /* \"#utility.yul\":194:195   */\n      dup1\n        /* \"#utility.yul\":187:199   */\n      revert\n        /* \"#utility.yul\":211:328   */\n    tag_83:\n        /* \"#utility.yul\":320:321   */\n      0x00\n        /* \"#utility.yul\":317:318   */\n      dup1\n        /* \"#utility.yul\":310:322   */\n      revert\n        /* \"#utility.yul\":334:460   */\n    tag_84:\n        /* \"#utility.yul\":371:378   */\n      0x00\n        /* \"#utility.yul\":411:453   */\n      0xffffffffffffffffffffffffffffffffffffffff\n        /* \"#utility.yul\":404:409   */\n      dup3\n        /* \"#utility.yul\":400:454   */\n      and\n        /* \"#utility.yul\":389:454   */\n      swap1\n      pop\n        /* \"#utility.yul\":334:460   */\n      swap2\n      swap1\n      pop\n      jump\t// out\n        /* \"#utility.yul\":466:562   */\n    tag_85:\n        /* \"#utility.yul\":503:510   */\n      0x00\n        /* \"#utility.yul\":532:556   */\n      tag_119\n        /* \"#utility.yul\":550:555   */\n      dup3\n        /* \"#utility.yul\":532:556   */\n      tag_84\n      jump\t// in\n    tag_119:\n        /* \"#utility.yul\":521:556   */\n      swap1\n      pop\n        /* \"#utility.yul\":466:562   */\n      swap2\n      swap1\n      pop\n      jump\t// out\n        /* \"#utility.yul\":568:690   */\n    tag_86:\n        /* \"#utility.yul\":641:665   */\n      tag_121\n        /* \"#utility.yul\":659:664   */\n      dup2\n        /* \"#utility.yul\":641:665   */\n      tag_85\n      jump\t// in\n    tag_121:\n        /* \"#utility.yul\":634:639   */\n      dup2\n        /* \"#utility.yul\":631:666   */\n      eq\n        /* \"#utility.yul\":621:684   */\n      tag_122\n      jumpi\n        /* \"#utility.yul\":680:681   */\n      0x00\n        /* \"#utility.yul\":677:678   */\n      dup1\n        /* \"#utility.yul\":670:682   */\n      revert\n        /* \"#utility.yul\":621:684   */\n    tag_122:\n        /* \"#utility.yul\":568:690   */\n      pop\n      jump\t// out\n        /* \"#utility.yul\":696:835   */\n    tag_87:\n        /* \"#utility.yul\":742:747   */\n      0x00\n        /* \"#utility.yul\":780:786   */\n      dup2\n        /* \"#utility.yul\":767:787   */\n      calldataload\n        /* \"#utility.yul\":758:787   */\n      swap1\n      pop\n        /* \"#utility.yul\":796:829   */\n      tag_124\n        /* \"#utility.yul\":823:828   */\n      dup2\n        /* \"#utility.yul\":796:829   */\n      tag_86\n      jump\t// in\n    tag_124:\n        /* \"#utility.yul\":696:835   */\n      swap3\n      swap2\n      pop\n      pop\n      jump\t// out\n        /* \"#utility.yul\":841:958   */\n    tag_88:\n        /* \"#utility.yul\":950:951   */\n      0x00\n        /* \"#utility.yul\":947:948   */\n      dup1\n        /* \"#utility.yul\":940:952   */\n      revert\n        /* \"#utility.yul\":964:1081   */\n    tag_89:\n        /* \"#utility.yul\":1073:1074   */\n      0x00\n        /* \"#utility.yul\":1070:1071   */\n      dup1\n        /* \"#utility.yul\":1063:1075   */\n      revert\n        /* \"#utility.yul\":1087:1204   */\n    tag_90:\n        /* \"#utility.yul\":1196:1197   */\n      0x00\n        /* \"#utility.yul\":1193:1194   */\n      dup1\n        /* \"#utility.yul\":1186:1198   */\n      revert\n        /* \"#utility.yul\":1227:1795   */\n    tag_91:\n        /* \"#utility.yul\":1300:1308   */\n      0x00\n        /* \"#utility.yul\":1310:1316   */\n      dup1\n        /* \"#utility.yul\":1360:1363   */\n      dup4\n        /* \"#utility.yul\":1353:1357   */\n      0x1f\n        /* \"#utility.yul\":1345:1351   */\n      dup5\n        /* \"#utility.yul\":1341:1358   */\n      add\n        /* \"#utility.yul\":1337:1364   */\n      slt\n        /* \"#utility.yul\":1327:1449   */\n      tag_129\n      jumpi\n        /* \"#utility.yul\":1368:1447   */\n      tag_130\n      tag_88\n      jump\t// in\n    tag_130:\n        /* \"#utility.yul\":1327:1449   */\n    tag_129:\n        /* \"#utility.yul\":1481:1487   */\n      dup3\n        /* \"#utility.yul\":1468:1488   */\n      calldataload\n        /* \"#utility.yul\":1458:1488   */\n      swap1\n      pop\n        /* \"#utility.yul\":1511:1529   */\n      0xffffffffffffffff\n        /* \"#utility.yul\":1503:1509   */\n      dup2\n        /* \"#utility.yul\":1500:1530   */\n      gt\n        /* \"#utility.yul\":1497:1614   */\n      iszero\n      tag_131\n      jumpi\n        /* \"#utility.yul\":1533:1612   */\n      tag_132\n      tag_89\n      jump\t// in\n    tag_132:\n        /* \"#utility.yul\":1497:1614   */\n    tag_131:\n        /* \"#utility.yul\":1647:1651   */\n      0x20\n        /* \"#utility.yul\":1639:1645   */\n      dup4\n        /* \"#utility.yul\":1635:1652   */\n      add\n        /* \"#utility.yul\":1623:1652   */\n      swap2\n      pop\n        /* \"#utility.yul\":1701:1704   */\n      dup4\n        /* \"#utility.yul\":1693:1697   */\n      0x20\n        /* \"#utility.yul\":1685:1691   */\n      dup3\n        /* \"#utility.yul\":1681:1698   */\n      mul\n        /* \"#utility.yul\":1671:1679   */\n      dup4\n        /* \"#utility.yul\":1667:1699   */\n      add\n        /* \"#utility.yul\":1664:1705   */\n      gt\n        /* \"#utility.yul\":1661:1789   */\n      iszero\n      tag_133\n      jumpi\n        /* \"#utility.yul\":1708:1787   */\n      tag_134\n      tag_90\n      jump\t// in\n    tag_134:\n        /* \"#utility.yul\":1661:1789   */\n    tag_133:\n        /* \"#utility.yul\":1227:1795   */\n      swap3\n      pop\n      swap3\n      swap1\n      pop\n      jump\t// out\n        /* \"#utility.yul\":1818:2386   */\n    tag_92:\n        /* \"#utility.yul\":1891:1899   */\n      0x00\n        /* \"#utility.yul\":1901:1907   */\n      dup1\n        /* \"#utility.yul\":1951:1954   */\n      dup4\n        /* \"#utility.yul\":1944:1948   */\n      0x1f\n        /* \"#utility.yul\":1936:1942   */\n      dup5\n        /* \"#utility.yul\":1932:1949   */\n      add\n        /* \"#utility.yul\":1928:1955   */\n      slt\n        /* \"#utility.yul\":1918:2040   */\n      tag_136\n      jumpi\n        /* \"#utility.yul\":1959:2038   */\n      tag_137\n      tag_88\n      jump\t// in\n    tag_137:\n        /* \"#utility.yul\":1918:2040   */\n    tag_136:\n        /* \"#utility.yul\":2072:2078   */\n      dup3\n        /* \"#utility.yul\":2059:2079   */\n      calldataload\n        /* \"#utility.yul\":2049:2079   */\n      swap1\n      pop\n        /* \"#utility.yul\":2102:2120   */\n      0xffffffffffffffff\n        /* \"#utility.yul\":2094:2100   */\n      dup2\n        /* \"#utility.yul\":2091:2121   */\n      gt\n        /* \"#utility.yul\":2088:2205   */\n      iszero\n      tag_138\n      jumpi\n        /* \"#utility.yul\":2124:2203   */\n      tag_139\n      tag_89\n      jump\t// in\n    tag_139:\n        /* \"#utility.yul\":2088:2205   */\n    tag_138:\n        /* \"#utility.yul\":2238:2242   */\n      0x20\n        /* \"#utility.yul\":2230:2236   */\n      dup4\n        /* \"#utility.yul\":2226:2243   */\n      add\n        /* \"#utility.yul\":2214:2243   */\n      swap2\n      pop\n        /* \"#utility.yul\":2292:2295   */\n      dup4\n        /* \"#utility.yul\":2284:2288   */\n      0x20\n        /* \"#utility.yul\":2276:2282   */\n      dup3\n        /* \"#utility.yul\":2272:2289   */\n      mul\n        /* \"#utility.yul\":2262:2270   */\n      dup4\n        /* \"#utility.yul\":2258:2290   */\n      add\n        /* \"#utility.yul\":2255:2296   */\n      gt\n        /* \"#utility.yul\":2252:2380   */\n      iszero\n      tag_140\n      jumpi\n        /* \"#utility.yul\":2299:2378   */\n      tag_141\n      tag_90\n      jump\t// in\n    tag_141:\n        /* \"#utility.yul\":2252:2380   */\n    tag_140:\n        /* \"#utility.yul\":1818:2386   */\n      swap3\n      pop\n      swap3\n      swap1\n      pop\n      jump\t// out\n        /* \"#utility.yul\":2392:3471   */\n    tag_8:\n        /* \"#utility.yul\":2523:2529   */\n      0x00\n        /* \"#utility.yul\":2531:2537   */\n      dup1\n        /* \"#utility.yul\":2539:2545   */\n      0x00\n        /* \"#utility.yul\":2547:2553   */\n      dup1\n        /* \"#utility.yul\":2555:2561   */\n      0x00\n        /* \"#utility.yul\":2604:2606   */\n      0x60\n        /* \"#utility.yul\":2592:2601   */\n      dup7\n        /* \"#utility.yul\":2583:2590   */\n      dup9\n        /* \"#utility.yul\":2579:2602   */\n      sub\n        /* \"#utility.yul\":2575:2607   */\n      slt\n        /* \"#utility.yul\":2572:2691   */\n      iszero\n      tag_143\n      jumpi\n        /* \"#utility.yul\":2610:2689   */\n      tag_144\n      tag_82\n      jump\t// in\n    tag_144:\n        /* \"#utility.yul\":2572:2691   */\n    tag_143:\n        /* \"#utility.yul\":2730:2731   */\n      0x00\n        /* \"#utility.yul\":2755:2808   */\n      tag_145\n        /* \"#utility.yul\":2800:2807   */\n      dup9\n        /* \"#utility.yul\":2791:2797   */\n      dup3\n        /* \"#utility.yul\":2780:2789   */\n      dup10\n        /* \"#utility.yul\":2776:2798   */\n      add\n        /* \"#utility.yul\":2755:2808   */\n      tag_87\n      jump\t// in\n    tag_145:\n        /* \"#utility.yul\":2745:2808   */\n      swap6\n      pop\n        /* \"#utility.yul\":2701:2818   */\n      pop\n        /* \"#utility.yul\":2885:2887   */\n      0x20\n        /* \"#utility.yul\":2874:2883   */\n      dup7\n        /* \"#utility.yul\":2870:2888   */\n      add\n        /* \"#utility.yul\":2857:2889   */\n      calldataload\n        /* \"#utility.yul\":2916:2934   */\n      0xffffffffffffffff\n        /* \"#utility.yul\":2908:2914   */\n      dup2\n        /* \"#utility.yul\":2905:2935   */\n      gt\n        /* \"#utility.yul\":2902:3019   */\n      iszero\n      tag_146\n      jumpi\n        /* \"#utility.yul\":2938:3017   */\n      tag_147\n      tag_83\n      jump\t// in\n    tag_147:\n        /* \"#utility.yul\":2902:3019   */\n    tag_146:\n        /* \"#utility.yul\":3051:3131   */\n      tag_148\n        /* \"#utility.yul\":3123:3130   */\n      dup9\n        /* \"#utility.yul\":3114:3120   */\n      dup3\n        /* \"#utility.yul\":3103:3112   */\n      dup10\n        /* \"#utility.yul\":3099:3121   */\n      add\n        /* \"#utility.yul\":3051:3131   */\n      tag_91\n      jump\t// in\n    tag_148:\n        /* \"#utility.yul\":3033:3131   */\n      swap5\n      pop\n      swap5\n      pop\n        /* \"#utility.yul\":2828:3141   */\n      pop\n        /* \"#utility.yul\":3208:3210   */\n      0x40\n        /* \"#utility.yul\":3197:3206   */\n      dup7\n        /* \"#utility.yul\":3193:3211   */\n      add\n        /* \"#utility.yul\":3180:3212   */\n      calldataload\n        /* \"#utility.yul\":3239:3257   */\n      0xffffffffffffffff\n        /* \"#utility.yul\":3231:3237   */\n      dup2\n        /* \"#utility.yul\":3228:3258   */\n      gt\n        /* \"#utility.yul\":3225:3342   */\n      iszero\n      tag_149\n      jumpi\n        /* \"#utility.yul\":3261:3340   */\n      tag_150\n      tag_83\n      jump\t// in\n    tag_150:\n        /* \"#utility.yul\":3225:3342   */\n    tag_149:\n        /* \"#utility.yul\":3374:3454   */\n      tag_151\n        /* \"#utility.yul\":3446:3453   */\n      dup9\n        /* \"#utility.yul\":3437:3443   */\n      dup3\n        /* \"#utility.yul\":3426:3435   */\n      dup10\n        /* \"#utility.yul\":3422:3444   */\n      add\n        /* \"#utility.yul\":3374:3454   */\n      tag_92\n      jump\t// in\n    tag_151:\n        /* \"#utility.yul\":3356:3454   */\n      swap3\n      pop\n      swap3\n      pop\n        /* \"#utility.yul\":3151:3464   */\n      pop\n        /* \"#utility.yul\":2392:3471   */\n      swap3\n      swap6\n      pop\n      swap3\n      swap6\n      swap1\n      swap4\n      pop\n      jump\t// out\n        /* \"#utility.yul\":3502:4078   */\n    tag_93:\n        /* \"#utility.yul\":3583:3591   */\n      0x00\n        /* \"#utility.yul\":3593:3599   */\n      dup1\n        /* \"#utility.yul\":3643:3646   */\n      dup4\n        /* \"#utility.yul\":3636:3640   */\n      0x1f\n        /* \"#utility.yul\":3628:3634   */\n      dup5\n        /* \"#utility.yul\":3624:3641   */\n      add\n        /* \"#utility.yul\":3620:3647   */\n      slt\n        /* \"#utility.yul\":3610:3732   */\n      tag_153\n      jumpi\n        /* \"#utility.yul\":3651:3730   */\n      tag_154\n      tag_88\n      jump\t// in\n    tag_154:\n        /* \"#utility.yul\":3610:3732   */\n    tag_153:\n        /* \"#utility.yul\":3764:3770   */\n      dup3\n        /* \"#utility.yul\":3751:3771   */\n      calldataload\n        /* \"#utility.yul\":3741:3771   */\n      swap1\n      pop\n        /* \"#utility.yul\":3794:3812   */\n      0xffffffffffffffff\n        /* \"#utility.yul\":3786:3792   */\n      dup2\n        /* \"#utility.yul\":3783:3813   */\n      gt\n        /* \"#utility.yul\":3780:3897   */\n      iszero\n      tag_155\n      jumpi\n        /* \"#utility.yul\":3816:3895   */\n      tag_156\n      tag_89\n      jump\t// in\n    tag_156:\n        /* \"#utility.yul\":3780:3897   */\n    tag_155:\n        /* \"#utility.yul\":3930:3934   */\n      0x20\n        /* \"#utility.yul\":3922:3928   */\n      dup4\n        /* \"#utility.yul\":3918:3935   */\n      add\n        /* \"#utility.yul\":3906:3935   */\n      swap2\n      pop\n        /* \"#utility.yul\":3984:3987   */\n      dup4\n        /* \"#utility.yul\":3976:3980   */\n      0x20\n        /* \"#utility.yul\":3968:3974   */\n      dup3\n        /* \"#utility.yul\":3964:3981   */\n      mul\n        /* \"#utility.yul\":3954:3962   */\n      dup4\n        /* \"#utility.yul\":3950:3982   */\n      add\n        /* \"#utility.yul\":3947:3988   */\n      gt\n        /* \"#utility.yul\":3944:4072   */\n      iszero\n      tag_157\n      jumpi\n        /* \"#utility.yul\":3991:4070   */\n      tag_158\n      tag_90\n      jump\t// in\n    tag_158:\n        /* \"#utility.yul\":3944:4072   */\n    tag_157:\n        /* \"#utility.yul\":3502:4078   */\n      swap3\n      pop\n      swap3\n      swap1\n      pop\n      jump\t// out\n        /* \"#utility.yul\":4084:5034   */\n    tag_12:\n        /* \"#utility.yul\":4214:4220   */\n      0x00\n        /* \"#utility.yul\":4222:4228   */\n      dup1\n        /* \"#utility.yul\":4230:4236   */\n      0x00\n        /* \"#utility.yul\":4238:4244   */\n      dup1\n        /* \"#utility.yul\":4287:4289   */\n      0x40\n        /* \"#utility.yul\":4275:4284   */\n      dup6\n        /* \"#utility.yul\":4266:4273   */\n      dup8\n        /* \"#utility.yul\":4262:4285   */\n      sub\n        /* \"#utility.yul\":4258:4290   */\n      slt\n        /* \"#utility.yul\":4255:4374   */\n      iszero\n      tag_160\n      jumpi\n        /* \"#utility.yul\":4293:4372   */\n      tag_161\n      tag_82\n      jump\t// in\n    tag_161:\n        /* \"#utility.yul\":4255:4374   */\n    tag_160:\n        /* \"#utility.yul\":4441:4442   */\n      0x00\n        /* \"#utility.yul\":4430:4439   */\n      dup6\n        /* \"#utility.yul\":4426:4443   */\n      add\n        /* \"#utility.yul\":4413:4444   */\n      calldataload\n        /* \"#utility.yul\":4471:4489   */\n      0xffffffffffffffff\n        /* \"#utility.yul\":4463:4469   */\n      dup2\n        /* \"#utility.yul\":4460:4490   */\n      gt\n        /* \"#utility.yul\":4457:4574   */\n      iszero\n      tag_162\n      jumpi\n        /* \"#utility.yul\":4493:4572   */\n      tag_163\n      tag_83\n      jump\t// in\n    tag_163:\n        /* \"#utility.yul\":4457:4574   */\n    tag_162:\n        /* \"#utility.yul\":4606:4694   */\n      tag_164\n        /* \"#utility.yul\":4686:4693   */\n      dup8\n        /* \"#utility.yul\":4677:4683   */\n      dup3\n        /* \"#utility.yul\":4666:4675   */\n      dup9\n        /* \"#utility.yul\":4662:4684   */\n      add\n        /* \"#utility.yul\":4606:4694   */\n      tag_93\n      jump\t// in\n    tag_164:\n        /* \"#utility.yul\":4588:4694   */\n      swap5\n      pop\n      swap5\n      pop\n        /* \"#utility.yul\":4384:4704   */\n      pop\n        /* \"#utility.yul\":4771:4773   */\n      0x20\n        /* \"#utility.yul\":4760:4769   */\n      dup6\n        /* \"#utility.yul\":4756:4774   */\n      add\n        /* \"#utility.yul\":4743:4775   */\n      calldataload\n        /* \"#utility.yul\":4802:4820   */\n      0xffffffffffffffff\n        /* \"#utility.yul\":4794:4800   */\n      dup2\n        /* \"#utility.yul\":4791:4821   */\n      gt\n        /* \"#utility.yul\":4788:4905   */\n      iszero\n      tag_165\n      jumpi\n        /* \"#utility.yul\":4824:4903   */\n      tag_166\n      tag_83\n      jump\t// in\n    tag_166:\n        /* \"#utility.yul\":4788:4905   */\n    tag_165:\n        /* \"#utility.yul\":4937:5017   */\n      tag_167\n        /* \"#utility.yul\":5009:5016   */\n      dup8\n        /* \"#utility.yul\":5000:5006   */\n      dup3\n        /* \"#utility.yul\":4989:4998   */\n      dup9\n        /* \"#utility.yul\":4985:5007   */\n      add\n        /* \"#utility.yul\":4937:5017   */\n      tag_92\n      jump\t// in\n    tag_167:\n        /* \"#utility.yul\":4919:5017   */\n      swap3\n      pop\n      swap3\n      pop\n        /* \"#utility.yul\":4714:5027   */\n      pop\n        /* \"#utility.yul\":4084:5034   */\n      swap3\n      swap6\n      swap2\n      swap5\n      pop\n      swap3\n      pop\n      jump\t// out\n        /* \"#utility.yul\":5040:5599   */\n    tag_17:\n        /* \"#utility.yul\":5126:5132   */\n      0x00\n        /* \"#utility.yul\":5134:5140   */\n      dup1\n        /* \"#utility.yul\":5183:5185   */\n      0x20\n        /* \"#utility.yul\":5171:5180   */\n      dup4\n        /* \"#utility.yul\":5162:5169   */\n      dup6\n        /* \"#utility.yul\":5158:5181   */\n      sub\n        /* \"#utility.yul\":5154:5186   */\n      slt\n        /* \"#utility.yul\":5151:5270   */\n      iszero\n      tag_169\n      jumpi\n        /* \"#utility.yul\":5189:5268   */\n      tag_170\n      tag_82\n      jump\t// in\n    tag_170:\n        /* \"#utility.yul\":5151:5270   */\n    tag_169:\n        /* \"#utility.yul\":5337:5338   */\n      0x00\n        /* \"#utility.yul\":5326:5335   */\n      dup4\n        /* \"#utility.yul\":5322:5339   */\n      add\n        /* \"#utility.yul\":5309:5340   */\n      calldataload\n        /* \"#utility.yul\":5367:5385   */\n      0xffffffffffffffff\n        /* \"#utility.yul\":5359:5365   */\n      dup2\n        /* \"#utility.yul\":5356:5386   */\n      gt\n        /* \"#utility.yul\":5353:5470   */\n      iszero\n      tag_171\n      jumpi\n        /* \"#utility.yul\":5389:5468   */\n      tag_172\n      tag_83\n      jump\t// in\n    tag_172:\n        /* \"#utility.yul\":5353:5470   */\n    tag_171:\n        /* \"#utility.yul\":5502:5582   */\n      tag_173\n        /* \"#utility.yul\":5574:5581   */\n      dup6\n        /* \"#utility.yul\":5565:5571   */\n      dup3\n        /* \"#utility.yul\":5554:5563   */\n      dup7\n        /* \"#utility.yul\":5550:5572   */\n      add\n        /* \"#utility.yul\":5502:5582   */\n      tag_92\n      jump\t// in\n    tag_173:\n        /* \"#utility.yul\":5484:5582   */\n      swap3\n      pop\n      swap3\n      pop\n        /* \"#utility.yul\":5280:5592   */\n      pop\n        /* \"#utility.yul\":5040:5599   */\n      swap3\n      pop\n      swap3\n      swap1\n      pop\n      jump\t// out\n        /* \"#utility.yul\":5605:5682   */\n    tag_94:\n        /* \"#utility.yul\":5642:5649   */\n      0x00\n        /* \"#utility.yul\":5671:5676   */\n      dup2\n        /* \"#utility.yul\":5660:5676   */\n      swap1\n      pop\n        /* \"#utility.yul\":5605:5682   */\n      swap2\n      swap1\n      pop\n      jump\t// out\n        /* \"#utility.yul\":5688:5806   */\n    tag_95:\n        /* \"#utility.yul\":5775:5799   */\n      tag_176\n        /* \"#utility.yul\":5793:5798   */\n      dup2\n        /* \"#utility.yul\":5775:5799   */\n      tag_94\n      jump\t// in\n    tag_176:\n        /* \"#utility.yul\":5770:5773   */\n      dup3\n        /* \"#utility.yul\":5763:5800   */\n      mstore\n        /* \"#utility.yul\":5688:5806   */\n      pop\n      pop\n      jump\t// out\n        /* \"#utility.yul\":5812:6034   */\n    tag_20:\n        /* \"#utility.yul\":5905:5909   */\n      0x00\n        /* \"#utility.yul\":5943:5945   */\n      0x20\n        /* \"#utility.yul\":5932:5941   */\n      dup3\n        /* \"#utility.yul\":5928:5946   */\n      add\n        /* \"#utility.yul\":5920:5946   */\n      swap1\n      pop\n        /* \"#utility.yul\":5956:6027   */\n      tag_178\n        /* \"#utility.yul\":6024:6025   */\n      0x00\n        /* \"#utility.yul\":6013:6022   */\n      dup4\n        /* \"#utility.yul\":6009:6026   */\n      add\n        /* \"#utility.yul\":6000:6006   */\n      dup5\n        /* \"#utility.yul\":5956:6027   */\n      tag_95\n      jump\t// in\n    tag_178:\n        /* \"#utility.yul\":5812:6034   */\n      swap3\n      swap2\n      pop\n      pop\n      jump\t// out\n        /* \"#utility.yul\":6040:6209   */\n    tag_96:\n        /* \"#utility.yul\":6124:6135   */\n      0x00\n        /* \"#utility.yul\":6158:6164   */\n      dup3\n        /* \"#utility.yul\":6153:6156   */\n      dup3\n        /* \"#utility.yul\":6146:6165   */\n      mstore\n        /* \"#utility.yul\":6198:6202   */\n      0x20\n        /* \"#utility.yul\":6193:6196   */\n      dup3\n        /* \"#utility.yul\":6189:6203   */\n      add\n        /* \"#utility.yul\":6174:6203   */\n      swap1\n      pop\n        /* \"#utility.yul\":6040:6209   */\n      swap3\n      swap2\n      pop\n      pop\n      jump\t// out\n        /* \"#utility.yul\":6215:6444   */\n    tag_97:\n        /* \"#utility.yul\":6355:6389   */\n      0x4c656e67746873206f662041646472657373657320616e6420416d6f756e7473\n        /* \"#utility.yul\":6351:6352   */\n      0x00\n        /* \"#utility.yul\":6343:6349   */\n      dup3\n        /* \"#utility.yul\":6339:6353   */\n      add\n        /* \"#utility.yul\":6332:6390   */\n      mstore\n        /* \"#utility.yul\":6424:6436   */\n      0x204e4f5420455155414c00000000000000000000000000000000000000000000\n        /* \"#utility.yul\":6419:6421   */\n      0x20\n        /* \"#utility.yul\":6411:6417   */\n      dup3\n        /* \"#utility.yul\":6407:6422   */\n      add\n        /* \"#utility.yul\":6400:6437   */\n      mstore\n        /* \"#utility.yul\":6215:6444   */\n      pop\n      jump\t// out\n        /* \"#utility.yul\":6450:6816   */\n    tag_98:\n        /* \"#utility.yul\":6592:6595   */\n      0x00\n        /* \"#utility.yul\":6613:6680   */\n      tag_182\n        /* \"#utility.yul\":6677:6679   */\n      0x2a\n        /* \"#utility.yul\":6672:6675   */\n      dup4\n        /* \"#utility.yul\":6613:6680   */\n      tag_96\n      jump\t// in\n    tag_182:\n        /* \"#utility.yul\":6606:6680   */\n      swap2\n      pop\n        /* \"#utility.yul\":6689:6782   */\n      tag_183\n        /* \"#utility.yul\":6778:6781   */\n      dup3\n        /* \"#utility.yul\":6689:6782   */\n      tag_97\n      jump\t// in\n    tag_183:\n        /* \"#utility.yul\":6807:6809   */\n      0x40\n        /* \"#utility.yul\":6802:6805   */\n      dup3\n        /* \"#utility.yul\":6798:6810   */\n      add\n        /* \"#utility.yul\":6791:6810   */\n      swap1\n      pop\n        /* \"#utility.yul\":6450:6816   */\n      swap2\n      swap1\n      pop\n      jump\t// out\n        /* \"#utility.yul\":6822:7241   */\n    tag_24:\n        /* \"#utility.yul\":6988:6992   */\n      0x00\n        /* \"#utility.yul\":7026:7028   */\n      0x20\n        /* \"#utility.yul\":7015:7024   */\n      dup3\n        /* \"#utility.yul\":7011:7029   */\n      add\n        /* \"#utility.yul\":7003:7029   */\n      swap1\n      pop\n        /* \"#utility.yul\":7075:7084   */\n      dup2\n        /* \"#utility.yul\":7069:7073   */\n      dup2\n        /* \"#utility.yul\":7065:7085   */\n      sub\n        /* \"#utility.yul\":7061:7062   */\n      0x00\n        /* \"#utility.yul\":7050:7059   */\n      dup4\n        /* \"#utility.yul\":7046:7063   */\n      add\n        /* \"#utility.yul\":7039:7086   */\n      mstore\n        /* \"#utility.yul\":7103:7234   */\n      tag_185\n        /* \"#utility.yul\":7229:7233   */\n      dup2\n        /* \"#utility.yul\":7103:7234   */\n      tag_98\n      jump\t// in\n    tag_185:\n        /* \"#utility.yul\":7095:7234   */\n      swap1\n      pop\n        /* \"#utility.yul\":6822:7241   */\n      swap2\n      swap1\n      pop\n      jump\t// out\n        /* \"#utility.yul\":7247:7365   */\n    tag_99:\n        /* \"#utility.yul\":7334:7358   */\n      tag_187\n        /* \"#utility.yul\":7352:7357   */\n      dup2\n        /* \"#utility.yul\":7334:7358   */\n      tag_85\n      jump\t// in\n    tag_187:\n        /* \"#utility.yul\":7329:7332   */\n      dup3\n        /* \"#utility.yul\":7322:7359   */\n      mstore\n        /* \"#utility.yul\":7247:7365   */\n      pop\n      pop\n      jump\t// out\n        /* \"#utility.yul\":7371:7703   */\n    tag_27:\n        /* \"#utility.yul\":7492:7496   */\n      0x00\n        /* \"#utility.yul\":7530:7532   */\n      0x40\n        /* \"#utility.yul\":7519:7528   */\n      dup3\n        /* \"#utility.yul\":7515:7533   */\n      add\n        /* \"#utility.yul\":7507:7533   */\n      swap1\n      pop\n        /* \"#utility.yul\":7543:7614   */\n      tag_189\n        /* \"#utility.yul\":7611:7612   */\n      0x00\n        /* \"#utility.yul\":7600:7609   */\n      dup4\n        /* \"#utility.yul\":7596:7613   */\n      add\n        /* \"#utility.yul\":7587:7593   */\n      dup6\n        /* \"#utility.yul\":7543:7614   */\n      tag_99\n      jump\t// in\n    tag_189:\n        /* \"#utility.yul\":7624:7696   */\n      tag_190\n        /* \"#utility.yul\":7692:7694   */\n      0x20\n        /* \"#utility.yul\":7681:7690   */\n      dup4\n        /* \"#utility.yul\":7677:7695   */\n      add\n        /* \"#utility.yul\":7668:7674   */\n      dup5\n        /* \"#utility.yul\":7624:7696   */\n      tag_99\n      jump\t// in\n    tag_190:\n        /* \"#utility.yul\":7371:7703   */\n      swap4\n      swap3\n      pop\n      pop\n      pop\n      jump\t// out\n        /* \"#utility.yul\":7709:7831   */\n    tag_100:\n        /* \"#utility.yul\":7782:7806   */\n      tag_192\n        /* \"#utility.yul\":7800:7805   */\n      dup2\n        /* \"#utility.yul\":7782:7806   */\n      tag_94\n      jump\t// in\n    tag_192:\n        /* \"#utility.yul\":7775:7780   */\n      dup2\n        /* \"#utility.yul\":7772:7807   */\n      eq\n        /* \"#utility.yul\":7762:7825   */\n      tag_193\n      jumpi\n        /* \"#utility.yul\":7821:7822   */\n      0x00\n        /* \"#utility.yul\":7818:7819   */\n      dup1\n        /* \"#utility.yul\":7811:7823   */\n      revert\n        /* \"#utility.yul\":7762:7825   */\n    tag_193:\n        /* \"#utility.yul\":7709:7831   */\n      pop\n      jump\t// out\n        /* \"#utility.yul\":7837:7980   */\n    tag_101:\n        /* \"#utility.yul\":7894:7899   */\n      0x00\n        /* \"#utility.yul\":7925:7931   */\n      dup2\n        /* \"#utility.yul\":7919:7932   */\n      mload\n        /* \"#utility.yul\":7910:7932   */\n      swap1\n      pop\n        /* \"#utility.yul\":7941:7974   */\n      tag_195\n        /* \"#utility.yul\":7968:7973   */\n      dup2\n        /* \"#utility.yul\":7941:7974   */\n      tag_100\n      jump\t// in\n    tag_195:\n        /* \"#utility.yul\":7837:7980   */\n      swap3\n      swap2\n      pop\n      pop\n      jump\t// out\n        /* \"#utility.yul\":7986:8337   */\n    tag_31:\n        /* \"#utility.yul\":8056:8062   */\n      0x00\n        /* \"#utility.yul\":8105:8107   */\n      0x20\n        /* \"#utility.yul\":8093:8102   */\n      dup3\n        /* \"#utility.yul\":8084:8091   */\n      dup5\n        /* \"#utility.yul\":8080:8103   */\n      sub\n        /* \"#utility.yul\":8076:8108   */\n      slt\n        /* \"#utility.yul\":8073:8192   */\n      iszero\n      tag_197\n      jumpi\n        /* \"#utility.yul\":8111:8190   */\n      tag_198\n      tag_82\n      jump\t// in\n    tag_198:\n        /* \"#utility.yul\":8073:8192   */\n    tag_197:\n        /* \"#utility.yul\":8231:8232   */\n      0x00\n        /* \"#utility.yul\":8256:8320   */\n      tag_199\n        /* \"#utility.yul\":8312:8319   */\n      dup5\n        /* \"#utility.yul\":8303:8309   */\n      dup3\n        /* \"#utility.yul\":8292:8301   */\n      dup6\n        /* \"#utility.yul\":8288:8310   */\n      add\n        /* \"#utility.yul\":8256:8320   */\n      tag_101\n      jump\t// in\n    tag_199:\n        /* \"#utility.yul\":8246:8320   */\n      swap2\n      pop\n        /* \"#utility.yul\":8202:8330   */\n      pop\n        /* \"#utility.yul\":7986:8337   */\n      swap3\n      swap2\n      pop\n      pop\n      jump\t// out\n        /* \"#utility.yul\":8343:8517   */\n    tag_102:\n        /* \"#utility.yul\":8483:8509   */\n      0x4e65656420417070726f766520455243323020746f6b656e0000000000000000\n        /* \"#utility.yul\":8479:8480   */\n      0x00\n        /* \"#utility.yul\":8471:8477   */\n      dup3\n        /* \"#utility.yul\":8467:8481   */\n      add\n        /* \"#utility.yul\":8460:8510   */\n      mstore\n        /* \"#utility.yul\":8343:8517   */\n      pop\n      jump\t// out\n        /* \"#utility.yul\":8523:8889   */\n    tag_103:\n        /* \"#utility.yul\":8665:8668   */\n      0x00\n        /* \"#utility.yul\":8686:8753   */\n      tag_202\n        /* \"#utility.yul\":8750:8752   */\n      0x18\n        /* \"#utility.yul\":8745:8748   */\n      dup4\n        /* \"#utility.yul\":8686:8753   */\n      tag_96\n      jump\t// in\n    tag_202:\n        /* \"#utility.yul\":8679:8753   */\n      swap2\n      pop\n        /* \"#utility.yul\":8762:8855   */\n      tag_203\n        /* \"#utility.yul\":8851:8854   */\n      dup3\n        /* \"#utility.yul\":8762:8855   */\n      tag_102\n      jump\t// in\n    tag_203:\n        /* \"#utility.yul\":8880:8882   */\n      0x20\n        /* \"#utility.yul\":8875:8878   */\n      dup3\n        /* \"#utility.yul\":8871:8883   */\n      add\n        /* \"#utility.yul\":8864:8883   */\n      swap1\n      pop\n        /* \"#utility.yul\":8523:8889   */\n      swap2\n      swap1\n      pop\n      jump\t// out\n        /* \"#utility.yul\":8895:9314   */\n    tag_34:\n        /* \"#utility.yul\":9061:9065   */\n      0x00\n        /* \"#utility.yul\":9099:9101   */\n      0x20\n        /* \"#utility.yul\":9088:9097   */\n      dup3\n        /* \"#utility.yul\":9084:9102   */\n      add\n        /* \"#utility.yul\":9076:9102   */\n      swap1\n      pop\n        /* \"#utility.yul\":9148:9157   */\n      dup2\n        /* \"#utility.yul\":9142:9146   */\n      dup2\n        /* \"#utility.yul\":9138:9158   */\n      sub\n        /* \"#utility.yul\":9134:9135   */\n      0x00\n        /* \"#utility.yul\":9123:9132   */\n      dup4\n        /* \"#utility.yul\":9119:9136   */\n      add\n        /* \"#utility.yul\":9112:9159   */\n      mstore\n        /* \"#utility.yul\":9176:9307   */\n      tag_205\n        /* \"#utility.yul\":9302:9306   */\n      dup2\n        /* \"#utility.yul\":9176:9307   */\n      tag_103\n      jump\t// in\n    tag_205:\n        /* \"#utility.yul\":9168:9307   */\n      swap1\n      pop\n        /* \"#utility.yul\":8895:9314   */\n      swap2\n      swap1\n      pop\n      jump\t// out\n        /* \"#utility.yul\":9320:9500   */\n    tag_40:\n        /* \"#utility.yul\":9368:9445   */\n      0x4e487b7100000000000000000000000000000000000000000000000000000000\n        /* \"#utility.yul\":9365:9366   */\n      0x00\n        /* \"#utility.yul\":9358:9446   */\n      mstore\n        /* \"#utility.yul\":9465:9469   */\n      0x32\n        /* \"#utility.yul\":9462:9463   */\n      0x04\n        /* \"#utility.yul\":9455:9470   */\n      mstore\n        /* \"#utility.yul\":9489:9493   */\n      0x24\n        /* \"#utility.yul\":9486:9487   */\n      0x00\n        /* \"#utility.yul\":9479:9494   */\n      revert\n        /* \"#utility.yul\":9506:9835   */\n    tag_42:\n        /* \"#utility.yul\":9565:9571   */\n      0x00\n        /* \"#utility.yul\":9614:9616   */\n      0x20\n        /* \"#utility.yul\":9602:9611   */\n      dup3\n        /* \"#utility.yul\":9593:9600   */\n      dup5\n        /* \"#utility.yul\":9589:9612   */\n      sub\n        /* \"#utility.yul\":9585:9617   */\n      slt\n        /* \"#utility.yul\":9582:9701   */\n      iszero\n      tag_208\n      jumpi\n        /* \"#utility.yul\":9620:9699   */\n      tag_209\n      tag_82\n      jump\t// in\n    tag_209:\n        /* \"#utility.yul\":9582:9701   */\n    tag_208:\n        /* \"#utility.yul\":9740:9741   */\n      0x00\n        /* \"#utility.yul\":9765:9818   */\n      tag_210\n        /* \"#utility.yul\":9810:9817   */\n      dup5\n        /* \"#utility.yul\":9801:9807   */\n      dup3\n        /* \"#utility.yul\":9790:9799   */\n      dup6\n        /* \"#utility.yul\":9786:9808   */\n      add\n        /* \"#utility.yul\":9765:9818   */\n      tag_87\n      jump\t// in\n    tag_210:\n        /* \"#utility.yul\":9755:9818   */\n      swap2\n      pop\n        /* \"#utility.yul\":9711:9828   */\n      pop\n        /* \"#utility.yul\":9506:9835   */\n      swap3\n      swap2\n      pop\n      pop\n      jump\t// out\n        /* \"#utility.yul\":9841:10283   */\n    tag_46:\n        /* \"#utility.yul\":9990:9994   */\n      0x00\n        /* \"#utility.yul\":10028:10030   */\n      0x60\n        /* \"#utility.yul\":10017:10026   */\n      dup3\n        /* \"#utility.yul\":10013:10031   */\n      add\n        /* \"#utility.yul\":10005:10031   */\n      swap1\n      pop\n        /* \"#utility.yul\":10041:10112   */\n      tag_212\n        /* \"#utility.yul\":10109:10110   */\n      0x00\n        /* \"#utility.yul\":10098:10107   */\n      dup4\n        /* \"#utility.yul\":10094:10111   */\n      add\n        /* \"#utility.yul\":10085:10091   */\n      dup7\n        /* \"#utility.yul\":10041:10112   */\n      tag_99\n      jump\t// in\n    tag_212:\n        /* \"#utility.yul\":10122:10194   */\n      tag_213\n        /* \"#utility.yul\":10190:10192   */\n      0x20\n        /* \"#utility.yul\":10179:10188   */\n      dup4\n        /* \"#utility.yul\":10175:10193   */\n      add\n        /* \"#utility.yul\":10166:10172   */\n      dup6\n        /* \"#utility.yul\":10122:10194   */\n      tag_99\n      jump\t// in\n    tag_213:\n        /* \"#utility.yul\":10204:10276   */\n      tag_214\n        /* \"#utility.yul\":10272:10274   */\n      0x40\n        /* \"#utility.yul\":10261:10270   */\n      dup4\n        /* \"#utility.yul\":10257:10275   */\n      add\n        /* \"#utility.yul\":10248:10254   */\n      dup5\n        /* \"#utility.yul\":10204:10276   */\n      tag_95\n      jump\t// in\n    tag_214:\n        /* \"#utility.yul\":9841:10283   */\n      swap5\n      swap4\n      pop\n      pop\n      pop\n      pop\n      jump\t// out\n        /* \"#utility.yul\":10289:10379   */\n    tag_104:\n        /* \"#utility.yul\":10323:10330   */\n      0x00\n        /* \"#utility.yul\":10366:10371   */\n      dup2\n        /* \"#utility.yul\":10359:10372   */\n      iszero\n        /* \"#utility.yul\":10352:10373   */\n      iszero\n        /* \"#utility.yul\":10341:10373   */\n      swap1\n      pop\n        /* \"#utility.yul\":10289:10379   */\n      swap2\n      swap1\n      pop\n      jump\t// out\n        /* \"#utility.yul\":10385:10501   */\n    tag_105:\n        /* \"#utility.yul\":10455:10476   */\n      tag_217\n        /* \"#utility.yul\":10470:10475   */\n      dup2\n        /* \"#utility.yul\":10455:10476   */\n      tag_104\n      jump\t// in\n    tag_217:\n        /* \"#utility.yul\":10448:10453   */\n      dup2\n        /* \"#utility.yul\":10445:10477   */\n      eq\n        /* \"#utility.yul\":10435:10495   */\n      tag_218\n      jumpi\n        /* \"#utility.yul\":10491:10492   */\n      0x00\n        /* \"#utility.yul\":10488:10489   */\n      dup1\n        /* \"#utility.yul\":10481:10493   */\n      revert\n        /* \"#utility.yul\":10435:10495   */\n    tag_218:\n        /* \"#utility.yul\":10385:10501   */\n      pop\n      jump\t// out\n        /* \"#utility.yul\":10507:10644   */\n    tag_106:\n        /* \"#utility.yul\":10561:10566   */\n      0x00\n        /* \"#utility.yul\":10592:10598   */\n      dup2\n        /* \"#utility.yul\":10586:10599   */\n      mload\n        /* \"#utility.yul\":10577:10599   */\n      swap1\n      pop\n        /* \"#utility.yul\":10608:10638   */\n      tag_220\n        /* \"#utility.yul\":10632:10637   */\n      dup2\n        /* \"#utility.yul\":10608:10638   */\n      tag_105\n      jump\t// in\n    tag_220:\n        /* \"#utility.yul\":10507:10644   */\n      swap3\n      swap2\n      pop\n      pop\n      jump\t// out\n        /* \"#utility.yul\":10650:10995   */\n    tag_50:\n        /* \"#utility.yul\":10717:10723   */\n      0x00\n        /* \"#utility.yul\":10766:10768   */\n      0x20\n        /* \"#utility.yul\":10754:10763   */\n      dup3\n        /* \"#utility.yul\":10745:10752   */\n      dup5\n        /* \"#utility.yul\":10741:10764   */\n      sub\n        /* \"#utility.yul\":10737:10769   */\n      slt\n        /* \"#utility.yul\":10734:10853   */\n      iszero\n      tag_222\n      jumpi\n        /* \"#utility.yul\":10772:10851   */\n      tag_223\n      tag_82\n      jump\t// in\n    tag_223:\n        /* \"#utility.yul\":10734:10853   */\n    tag_222:\n        /* \"#utility.yul\":10892:10893   */\n      0x00\n        /* \"#utility.yul\":10917:10978   */\n      tag_224\n        /* \"#utility.yul\":10970:10977   */\n      dup5\n        /* \"#utility.yul\":10961:10967   */\n      dup3\n        /* \"#utility.yul\":10950:10959   */\n      dup6\n        /* \"#utility.yul\":10946:10968   */\n      add\n        /* \"#utility.yul\":10917:10978   */\n      tag_106\n      jump\t// in\n    tag_224:\n        /* \"#utility.yul\":10907:10978   */\n      swap2\n      pop\n        /* \"#utility.yul\":10863:10988   */\n      pop\n        /* \"#utility.yul\":10650:10995   */\n      swap3\n      swap2\n      pop\n      pop\n      jump\t// out\n        /* \"#utility.yul\":11001:11181   */\n    tag_107:\n        /* \"#utility.yul\":11049:11126   */\n      0x4e487b7100000000000000000000000000000000000000000000000000000000\n        /* \"#utility.yul\":11046:11047   */\n      0x00\n        /* \"#utility.yul\":11039:11127   */\n      mstore\n        /* \"#utility.yul\":11146:11150   */\n      0x11\n        /* \"#utility.yul\":11143:11144   */\n      0x04\n        /* \"#utility.yul\":11136:11151   */\n      mstore\n        /* \"#utility.yul\":11170:11174   */\n      0x24\n        /* \"#utility.yul\":11167:11168   */\n      0x00\n        /* \"#utility.yul\":11160:11175   */\n      revert\n        /* \"#utility.yul\":11187:11420   */\n    tag_52:\n        /* \"#utility.yul\":11226:11229   */\n      0x00\n        /* \"#utility.yul\":11249:11273   */\n      tag_227\n        /* \"#utility.yul\":11267:11272   */\n      dup3\n        /* \"#utility.yul\":11249:11273   */\n      tag_94\n      jump\t// in\n    tag_227:\n        /* \"#utility.yul\":11240:11273   */\n      swap2\n      pop\n        /* \"#utility.yul\":11295:11361   */\n      0xffffffffffffffffffffffffffffffffffffffffffffffffffffffffffffffff\n        /* \"#utility.yul\":11288:11293   */\n      dup3\n        /* \"#utility.yul\":11285:11362   */\n      sub\n        /* \"#utility.yul\":11282:11385   */\n      tag_228\n      jumpi\n        /* \"#utility.yul\":11365:11383   */\n      tag_229\n      tag_107\n      jump\t// in\n    tag_229:\n        /* \"#utility.yul\":11282:11385   */\n    tag_228:\n        /* \"#utility.yul\":11412:11413   */\n      0x01\n        /* \"#utility.yul\":11405:11410   */\n      dup3\n        /* \"#utility.yul\":11401:11414   */\n      add\n        /* \"#utility.yul\":11394:11414   */\n      swap1\n      pop\n        /* \"#utility.yul\":11187:11420   */\n      swap2\n      swap1\n      pop\n      jump\t// out\n        /* \"#utility.yul\":11426:11597   */\n    tag_108:\n        /* \"#utility.yul\":11566:11589   */\n      0x5472616e7366657220616d6f756e74206572726f720000000000000000000000\n        /* \"#utility.yul\":11562:11563   */\n      0x00\n        /* \"#utility.yul\":11554:11560   */\n      dup3\n        /* \"#utility.yul\":11550:11564   */\n      add\n        /* \"#utility.yul\":11543:11590   */\n      mstore\n        /* \"#utility.yul\":11426:11597   */\n      pop\n      jump\t// out\n        /* \"#utility.yul\":11603:11969   */\n    tag_109:\n        /* \"#utility.yul\":11745:11748   */\n      0x00\n        /* \"#utility.yul\":11766:11833   */\n      tag_232\n        /* \"#utility.yul\":11830:11832   */\n      0x15\n        /* \"#utility.yul\":11825:11828   */\n      dup4\n        /* \"#utility.yul\":11766:11833   */\n      tag_96\n      jump\t// in\n    tag_232:\n        /* \"#utility.yul\":11759:11833   */\n      swap2\n      pop\n        /* \"#utility.yul\":11842:11935   */\n      tag_233\n        /* \"#utility.yul\":11931:11934   */\n      dup3\n        /* \"#utility.yul\":11842:11935   */\n      tag_108\n      jump\t// in\n    tag_233:\n        /* \"#utility.yul\":11960:11962   */\n      0x20\n        /* \"#utility.yul\":11955:11958   */\n      dup3\n        /* \"#utility.yul\":11951:11963   */\n      add\n        /* \"#utility.yul\":11944:11963   */\n      swap1\n      pop\n        /* \"#utility.yul\":11603:11969   */\n      swap2\n      swap1\n      pop\n      jump\t// out\n        /* \"#utility.yul\":11975:12394   */\n    tag_59:\n        /* \"#utility.yul\":12141:12145   */\n      0x00\n        /* \"#utility.yul\":12179:12181   */\n      0x20\n        /* \"#utility.yul\":12168:12177   */\n      dup3\n        /* \"#utility.yul\":12164:12182   */\n      add\n        /* \"#utility.yul\":12156:12182   */\n      swap1\n      pop\n        /* \"#utility.yul\":12228:12237   */\n      dup2\n        /* \"#utility.yul\":12222:12226   */\n      dup2\n        /* \"#utility.yul\":12218:12238   */\n      sub\n        /* \"#utility.yul\":12214:12215   */\n      0x00\n        /* \"#utility.yul\":12203:12212   */\n      dup4\n        /* \"#utility.yul\":12199:12216   */\n      add\n        /* \"#utility.yul\":12192:12239   */\n      mstore\n        /* \"#utility.yul\":12256:12387   */\n      tag_235\n        /* \"#utility.yul\":12382:12386   */\n      dup2\n        /* \"#utility.yul\":12256:12387   */\n      tag_109\n      jump\t// in\n    tag_235:\n        /* \"#utility.yul\":12248:12387   */\n      swap1\n      pop\n        /* \"#utility.yul\":11975:12394   */\n      swap2\n      swap1\n      pop\n      jump\t// out\n        /* \"#utility.yul\":12400:12504   */\n    tag_110:\n        /* \"#utility.yul\":12445:12452   */\n      0x00\n        /* \"#utility.yul\":12474:12498   */\n      tag_237\n        /* \"#utility.yul\":12492:12497   */\n      dup3\n        /* \"#utility.yul\":12474:12498   */\n      tag_84\n      jump\t// in\n    tag_237:\n        /* \"#utility.yul\":12463:12498   */\n      swap1\n      pop\n        /* \"#utility.yul\":12400:12504   */\n      swap2\n      swap1\n      pop\n      jump\t// out\n        /* \"#utility.yul\":12510:12648   */\n    tag_111:\n        /* \"#utility.yul\":12591:12623   */\n      tag_239\n        /* \"#utility.yul\":12617:12622   */\n      dup2\n        /* \"#utility.yul\":12591:12623   */\n      tag_110\n      jump\t// in\n    tag_239:\n        /* \"#utility.yul\":12584:12589   */\n      dup2\n        /* \"#utility.yul\":12581:12624   */\n      eq\n        /* \"#utility.yul\":12571:12642   */\n      tag_240\n      jumpi\n        /* \"#utility.yul\":12638:12639   */\n      0x00\n        /* \"#utility.yul\":12635:12636   */\n      dup1\n        /* \"#utility.yul\":12628:12640   */\n      revert\n        /* \"#utility.yul\":12571:12642   */\n    tag_240:\n        /* \"#utility.yul\":12510:12648   */\n      pop\n      jump\t// out\n        /* \"#utility.yul\":12654:12809   */\n    tag_112:\n        /* \"#utility.yul\":12708:12713   */\n      0x00\n        /* \"#utility.yul\":12746:12752   */\n      dup2\n        /* \"#utility.yul\":12733:12753   */\n      calldataload\n        /* \"#utility.yul\":12724:12753   */\n      swap1\n      pop\n        /* \"#utility.yul\":12762:12803   */\n      tag_242\n        /* \"#utility.yul\":12797:12802   */\n      dup2\n        /* \"#utility.yul\":12762:12803   */\n      tag_111\n      jump\t// in\n    tag_242:\n        /* \"#utility.yul\":12654:12809   */\n      swap3\n      swap2\n      pop\n      pop\n      jump\t// out\n        /* \"#utility.yul\":12815:13160   */\n    tag_66:\n        /* \"#utility.yul\":12882:12888   */\n      0x00\n        /* \"#utility.yul\":12931:12933   */\n      0x20\n        /* \"#utility.yul\":12919:12928   */\n      dup3\n        /* \"#utility.yul\":12910:12917   */\n      dup5\n        /* \"#utility.yul\":12906:12929   */\n      sub\n        /* \"#utility.yul\":12902:12934   */\n      slt\n        /* \"#utility.yul\":12899:13018   */\n      iszero\n      tag_244\n      jumpi\n        /* \"#utility.yul\":12937:13016   */\n      tag_245\n      tag_82\n      jump\t// in\n    tag_245:\n        /* \"#utility.yul\":12899:13018   */\n    tag_244:\n        /* \"#utility.yul\":13057:13058   */\n      0x00\n        /* \"#utility.yul\":13082:13143   */\n      tag_246\n        /* \"#utility.yul\":13135:13142   */\n      dup5\n        /* \"#utility.yul\":13126:13132   */\n      dup3\n        /* \"#utility.yul\":13115:13124   */\n      dup6\n        /* \"#utility.yul\":13111:13133   */\n      add\n        /* \"#utility.yul\":13082:13143   */\n      tag_112\n      jump\t// in\n    tag_246:\n        /* \"#utility.yul\":13072:13143   */\n      swap2\n      pop\n        /* \"#utility.yul\":13028:13153   */\n      pop\n        /* \"#utility.yul\":12815:13160   */\n      swap3\n      swap2\n      pop\n      pop\n      jump\t// out\n        /* \"#utility.yul\":13166:13357   */\n    tag_79:\n        /* \"#utility.yul\":13206:13209   */\n      0x00\n        /* \"#utility.yul\":13225:13245   */\n      tag_248\n        /* \"#utility.yul\":13243:13244   */\n      dup3\n        /* \"#utility.yul\":13225:13245   */\n      tag_94\n      jump\t// in\n    tag_248:\n        /* \"#utility.yul\":13220:13245   */\n      swap2\n      pop\n        /* \"#utility.yul\":13259:13279   */\n      tag_249\n        /* \"#utility.yul\":13277:13278   */\n      dup4\n        /* \"#utility.yul\":13259:13279   */\n      tag_94\n      jump\t// in\n    tag_249:\n        /* \"#utility.yul\":13254:13279   */\n      swap3\n      pop\n        /* \"#utility.yul\":13302:13303   */\n      dup3\n        /* \"#utility.yul\":13299:13300   */\n      dup3\n        /* \"#utility.yul\":13295:13304   */\n      add\n        /* \"#utility.yul\":13288:13304   */\n      swap1\n      pop\n        /* \"#utility.yul\":13323:13326   */\n      dup1\n        /* \"#utility.yul\":13320:13321   */\n      dup3\n        /* \"#utility.yul\":13317:13327   */\n      gt\n        /* \"#utility.yul\":13314:13350   */\n      iszero\n      tag_250\n      jumpi\n        /* \"#utility.yul\":13330:13348   */\n      tag_251\n      tag_107\n      jump\t// in\n    tag_251:\n        /* \"#utility.yul\":13314:13350   */\n    tag_250:\n        /* \"#utility.yul\":13166:13357   */\n      swap3\n      swap2\n      pop\n      pop\n      jump\t// out\n\n    auxdata: 0xa2646970667358221220546027998c0986daa9db4d6b18b160bef55d9543bf6eaf0c2b9173a1c65996cf64736f6c63430008120033\n}\n",
				"bytecode": {
					"linkReferences": {},
					"object": "608060405234801561001057600080fd5b50610bbb806100206000396000f3fe6080604052600436106100345760003560e01c806341ed24a21461003957806377988cf814610062578063ccb8c1e01461007e575b600080fd5b34801561004557600080fd5b50610060600480360381019061005b919061057e565b6100bb565b005b61007c60048036038101906100779190610669565b6102bf565b005b34801561008a57600080fd5b506100a560048036038101906100a091906106ea565b610407565b6040516100b29190610750565b60405180910390f35b818190508484905014610103576040517f08c379a00000000000000000000000000000000000000000000000000000000081526004016100fa906107ee565b60405180910390fd5b600085905060006101148484610407565b9050808273ffffffffffffffffffffffffffffffffffffffff1663dd62ed3e33306040518363ffffffff1660e01b815260040161015292919061081d565b602060405180830381865afa15801561016f573d6000803e3d6000fd5b505050506040513d601f19601f820116820180604052508101906101939190610872565b116101d3576040517f08c379a00000000000000000000000000000000000000000000000000000000081526004016101ca906108eb565b60405180910390fd5b60005b868690508110156102b5578273ffffffffffffffffffffffffffffffffffffffff166323b872dd338989858181106102115761021061090b565b5b9050602002016020810190610226919061093a565b8888868181106102395761023861090b565b5b905060200201356040518463ffffffff1660e01b815260040161025e93929190610967565b6020604051808303816000875af115801561027d573d6000803e3d6000fd5b505050506040513d601f19601f820116820180604052508101906102a191906109d6565b5080806102ad90610a32565b9150506101d6565b5050505050505050565b818190508484905014610307576040517f08c379a00000000000000000000000000000000000000000000000000000000081526004016102fe906107ee565b60405180910390fd5b60006103138383610407565b9050803414610357576040517f08c379a000000000000000000000000000000000000000000000000000000000815260040161034e90610ac6565b60405180910390fd5b60005b858590508110156103ff578585828181106103785761037761090b565b5b905060200201602081019061038d9190610b24565b73ffffffffffffffffffffffffffffffffffffffff166108fc8585848181106103b9576103b861090b565b5b905060200201359081150290604051600060405180830381858888f193505050501580156103eb573d6000803e3d6000fd5b5080806103f790610a32565b91505061035a565b505050505050565b600080600090505b838390508110156104545783838281811061042d5761042c61090b565b5b905060200201358261043f9190610b51565b9150808061044c90610a32565b91505061040f565b5092915050565b600080fd5b600080fd5b600073ffffffffffffffffffffffffffffffffffffffff82169050919050565b600061049082610465565b9050919050565b6104a081610485565b81146104ab57600080fd5b50565b6000813590506104bd81610497565b92915050565b600080fd5b600080fd5b600080fd5b60008083601f8401126104e8576104e76104c3565b5b8235905067ffffffffffffffff811115610505576105046104c8565b5b602083019150836020820283011115610521576105206104cd565b5b9250929050565b60008083601f84011261053e5761053d6104c3565b5b8235905067ffffffffffffffff81111561055b5761055a6104c8565b5b602083019150836020820283011115610577576105766104cd565b5b9250929050565b60008060008060006060868803121561059a5761059961045b565b5b60006105a8888289016104ae565b955050602086013567ffffffffffffffff8111156105c9576105c8610460565b5b6105d5888289016104d2565b9450945050604086013567ffffffffffffffff8111156105f8576105f7610460565b5b61060488828901610528565b92509250509295509295909350565b60008083601f840112610629576106286104c3565b5b8235905067ffffffffffffffff811115610646576106456104c8565b5b602083019150836020820283011115610662576106616104cd565b5b9250929050565b600080600080604085870312156106835761068261045b565b5b600085013567ffffffffffffffff8111156106a1576106a0610460565b5b6106ad87828801610613565b9450945050602085013567ffffffffffffffff8111156106d0576106cf610460565b5b6106dc87828801610528565b925092505092959194509250565b600080602083850312156107015761070061045b565b5b600083013567ffffffffffffffff81111561071f5761071e610460565b5b61072b85828601610528565b92509250509250929050565b6000819050919050565b61074a81610737565b82525050565b60006020820190506107656000830184610741565b92915050565b600082825260208201905092915050565b7f4c656e67746873206f662041646472657373657320616e6420416d6f756e747360008201527f204e4f5420455155414c00000000000000000000000000000000000000000000602082015250565b60006107d8602a8361076b565b91506107e38261077c565b604082019050919050565b60006020820190508181036000830152610807816107cb565b9050919050565b61081781610485565b82525050565b6000604082019050610832600083018561080e565b61083f602083018461080e565b9392505050565b61084f81610737565b811461085a57600080fd5b50565b60008151905061086c81610846565b92915050565b6000602082840312156108885761088761045b565b5b60006108968482850161085d565b91505092915050565b7f4e65656420417070726f766520455243323020746f6b656e0000000000000000600082015250565b60006108d560188361076b565b91506108e08261089f565b602082019050919050565b60006020820190508181036000830152610904816108c8565b9050919050565b7f4e487b7100000000000000000000000000000000000000000000000000000000600052603260045260246000fd5b6000602082840312156109505761094f61045b565b5b600061095e848285016104ae565b91505092915050565b600060608201905061097c600083018661080e565b610989602083018561080e565b6109966040830184610741565b949350505050565b60008115159050919050565b6109b38161099e565b81146109be57600080fd5b50565b6000815190506109d0816109aa565b92915050565b6000602082840312156109ec576109eb61045b565b5b60006109fa848285016109c1565b91505092915050565b7f4e487b7100000000000000000000000000000000000000000000000000000000600052601160045260246000fd5b6000610a3d82610737565b91507fffffffffffffffffffffffffffffffffffffffffffffffffffffffffffffffff8203610a6f57610a6e610a03565b5b600182019050919050565b7f5472616e7366657220616d6f756e74206572726f720000000000000000000000600082015250565b6000610ab060158361076b565b9150610abb82610a7a565b602082019050919050565b60006020820190508181036000830152610adf81610aa3565b9050919050565b6000610af182610465565b9050919050565b610b0181610ae6565b8114610b0c57600080fd5b50565b600081359050610b1e81610af8565b92915050565b600060208284031215610b3a57610b3961045b565b5b6000610b4884828501610b0f565b91505092915050565b6000610b5c82610737565b9150610b6783610737565b9250828201905080821115610b7f57610b7e610a03565b5b9291505056fea2646970667358221220546027998c0986daa9db4d6b18b160bef55d9543bf6eaf0c2b9173a1c65996cf64736f6c63430008120033",
					"opcodes": "PUSH1 0x80 PUSH1 0x40 MSTORE CALLVALUE DUP1 ISZERO PUSH2 0x10 JUMPI PUSH1 0x0 DUP1 REVERT JUMPDEST POP PUSH2 0xBBB DUP1 PUSH2 0x20 PUSH1 0x0 CODECOPY PUSH1 0x0 RETURN INVALID PUSH1 0x80 PUSH1 0x40 MSTORE PUSH1 0x4 CALLDATASIZE LT PUSH2 0x34 JUMPI PUSH1 0x0 CALLDATALOAD PUSH1 0xE0 SHR DUP1 PUSH4 0x41ED24A2 EQ PUSH2 0x39 JUMPI DUP1 PUSH4 0x77988CF8 EQ PUSH2 0x62 JUMPI DUP1 PUSH4 0xCCB8C1E0 EQ PUSH2 0x7E JUMPI JUMPDEST PUSH1 0x0 DUP1 REVERT JUMPDEST CALLVALUE DUP1 ISZERO PUSH2 0x45 JUMPI PUSH1 0x0 DUP1 REVERT JUMPDEST POP PUSH2 0x60 PUSH1 0x4 DUP1 CALLDATASIZE SUB DUP2 ADD SWAP1 PUSH2 0x5B SWAP2 SWAP1 PUSH2 0x57E JUMP JUMPDEST PUSH2 0xBB JUMP JUMPDEST STOP JUMPDEST PUSH2 0x7C PUSH1 0x4 DUP1 CALLDATASIZE SUB DUP2 ADD SWAP1 PUSH2 0x77 SWAP2 SWAP1 PUSH2 0x669 JUMP JUMPDEST PUSH2 0x2BF JUMP JUMPDEST STOP JUMPDEST CALLVALUE DUP1 ISZERO PUSH2 0x8A JUMPI PUSH1 0x0 DUP1 REVERT JUMPDEST POP PUSH2 0xA5 PUSH1 0x4 DUP1 CALLDATASIZE SUB DUP2 ADD SWAP1 PUSH2 0xA0 SWAP2 SWAP1 PUSH2 0x6EA JUMP JUMPDEST PUSH2 0x407 JUMP JUMPDEST PUSH1 0x40 MLOAD PUSH2 0xB2 SWAP2 SWAP1 PUSH2 0x750 JUMP JUMPDEST PUSH1 0x40 MLOAD DUP1 SWAP2 SUB SWAP1 RETURN JUMPDEST DUP2 DUP2 SWAP1 POP DUP5 DUP5 SWAP1 POP EQ PUSH2 0x103 JUMPI PUSH1 0x40 MLOAD PUSH32 0x8C379A000000000000000000000000000000000000000000000000000000000 DUP2 MSTORE PUSH1 0x4 ADD PUSH2 0xFA SWAP1 PUSH2 0x7EE JUMP JUMPDEST PUSH1 0x40 MLOAD DUP1 SWAP2 SUB SWAP1 REVERT JUMPDEST PUSH1 0x0 DUP6 SWAP1 POP PUSH1 0x0 PUSH2 0x114 DUP5 DUP5 PUSH2 0x407 JUMP JUMPDEST SWAP1 POP DUP1 DUP3 PUSH20 0xFFFFFFFFFFFFFFFFFFFFFFFFFFFFFFFFFFFFFFFF AND PUSH4 0xDD62ED3E CALLER ADDRESS PUSH1 0x40 MLOAD DUP4 PUSH4 0xFFFFFFFF AND PUSH1 0xE0 SHL DUP2 MSTORE PUSH1 0x4 ADD PUSH2 0x152 SWAP3 SWAP2 SWAP1 PUSH2 0x81D JUMP JUMPDEST PUSH1 0x20 PUSH1 0x40 MLOAD DUP1 DUP4 SUB DUP2 DUP7 GAS STATICCALL ISZERO DUP1 ISZERO PUSH2 0x16F JUMPI RETURNDATASIZE PUSH1 0x0 DUP1 RETURNDATACOPY RETURNDATASIZE PUSH1 0x0 REVERT JUMPDEST POP POP POP POP PUSH1 0x40 MLOAD RETURNDATASIZE PUSH1 0x1F NOT PUSH1 0x1F DUP3 ADD AND DUP3 ADD DUP1 PUSH1 0x40 MSTORE POP DUP2 ADD SWAP1 PUSH2 0x193 SWAP2 SWAP1 PUSH2 0x872 JUMP JUMPDEST GT PUSH2 0x1D3 JUMPI PUSH1 0x40 MLOAD PUSH32 0x8C379A000000000000000000000000000000000000000000000000000000000 DUP2 MSTORE PUSH1 0x4 ADD PUSH2 0x1CA SWAP1 PUSH2 0x8EB JUMP JUMPDEST PUSH1 0x40 MLOAD DUP1 SWAP2 SUB SWAP1 REVERT JUMPDEST PUSH1 0x0 JUMPDEST DUP7 DUP7 SWAP1 POP DUP2 LT ISZERO PUSH2 0x2B5 JUMPI DUP3 PUSH20 0xFFFFFFFFFFFFFFFFFFFFFFFFFFFFFFFFFFFFFFFF AND PUSH4 0x23B872DD CALLER DUP10 DUP10 DUP6 DUP2 DUP2 LT PUSH2 0x211 JUMPI PUSH2 0x210 PUSH2 0x90B JUMP JUMPDEST JUMPDEST SWAP1 POP PUSH1 0x20 MUL ADD PUSH1 0x20 DUP2 ADD SWAP1 PUSH2 0x226 SWAP2 SWAP1 PUSH2 0x93A JUMP JUMPDEST DUP9 DUP9 DUP7 DUP2 DUP2 LT PUSH2 0x239 JUMPI PUSH2 0x238 PUSH2 0x90B JUMP JUMPDEST JUMPDEST SWAP1 POP PUSH1 0x20 MUL ADD CALLDATALOAD PUSH1 0x40 MLOAD DUP5 PUSH4 0xFFFFFFFF AND PUSH1 0xE0 SHL DUP2 MSTORE PUSH1 0x4 ADD PUSH2 0x25E SWAP4 SWAP3 SWAP2 SWAP1 PUSH2 0x967 JUMP JUMPDEST PUSH1 0x20 PUSH1 0x40 MLOAD DUP1 DUP4 SUB DUP2 PUSH1 0x0 DUP8 GAS CALL ISZERO DUP1 ISZERO PUSH2 0x27D JUMPI RETURNDATASIZE PUSH1 0x0 DUP1 RETURNDATACOPY RETURNDATASIZE PUSH1 0x0 REVERT JUMPDEST POP POP POP POP PUSH1 0x40 MLOAD RETURNDATASIZE PUSH1 0x1F NOT PUSH1 0x1F DUP3 ADD AND DUP3 ADD DUP1 PUSH1 0x40 MSTORE POP DUP2 ADD SWAP1 PUSH2 0x2A1 SWAP2 SWAP1 PUSH2 0x9D6 JUMP JUMPDEST POP DUP1 DUP1 PUSH2 0x2AD SWAP1 PUSH2 0xA32 JUMP JUMPDEST SWAP2 POP POP PUSH2 0x1D6 JUMP JUMPDEST POP POP POP POP POP POP POP POP JUMP JUMPDEST DUP2 DUP2 SWAP1 POP DUP5 DUP5 SWAP1 POP EQ PUSH2 0x307 JUMPI PUSH1 0x40 MLOAD PUSH32 0x8C379A000000000000000000000000000000000000000000000000000000000 DUP2 MSTORE PUSH1 0x4 ADD PUSH2 0x2FE SWAP1 PUSH2 0x7EE JUMP JUMPDEST PUSH1 0x40 MLOAD DUP1 SWAP2 SUB SWAP1 REVERT JUMPDEST PUSH1 0x0 PUSH2 0x313 DUP4 DUP4 PUSH2 0x407 JUMP JUMPDEST SWAP1 POP DUP1 CALLVALUE EQ PUSH2 0x357 JUMPI PUSH1 0x40 MLOAD PUSH32 0x8C379A000000000000000000000000000000000000000000000000000000000 DUP2 MSTORE PUSH1 0x4 ADD PUSH2 0x34E SWAP1 PUSH2 0xAC6 JUMP JUMPDEST PUSH1 0x40 MLOAD DUP1 SWAP2 SUB SWAP1 REVERT JUMPDEST PUSH1 0x0 JUMPDEST DUP6 DUP6 SWAP1 POP DUP2 LT ISZERO PUSH2 0x3FF JUMPI DUP6 DUP6 DUP3 DUP2 DUP2 LT PUSH2 0x378 JUMPI PUSH2 0x377 PUSH2 0x90B JUMP JUMPDEST JUMPDEST SWAP1 POP PUSH1 0x20 MUL ADD PUSH1 0x20 DUP2 ADD SWAP1 PUSH2 0x38D SWAP2 SWAP1 PUSH2 0xB24 JUMP JUMPDEST PUSH20 0xFFFFFFFFFFFFFFFFFFFFFFFFFFFFFFFFFFFFFFFF AND PUSH2 0x8FC DUP6 DUP6 DUP5 DUP2 DUP2 LT PUSH2 0x3B9 JUMPI PUSH2 0x3B8 PUSH2 0x90B JUMP JUMPDEST JUMPDEST SWAP1 POP PUSH1 0x20 MUL ADD CALLDATALOAD SWAP1 DUP2 ISZERO MUL SWAP1 PUSH1 0x40 MLOAD PUSH1 0x0 PUSH1 0x40 MLOAD DUP1 DUP4 SUB DUP2 DUP6 DUP9 DUP9 CALL SWAP4 POP POP POP POP ISZERO DUP1 ISZERO PUSH2 0x3EB JUMPI RETURNDATASIZE PUSH1 0x0 DUP1 RETURNDATACOPY RETURNDATASIZE PUSH1 0x0 REVERT JUMPDEST POP DUP1 DUP1 PUSH2 0x3F7 SWAP1 PUSH2 0xA32 JUMP JUMPDEST SWAP2 POP POP PUSH2 0x35A JUMP JUMPDEST POP POP POP POP POP POP JUMP JUMPDEST PUSH1 0x0 DUP1 PUSH1 0x0 SWAP1 POP JUMPDEST DUP4 DUP4 SWAP1 POP DUP2 LT ISZERO PUSH2 0x454 JUMPI DUP4 DUP4 DUP3 DUP2 DUP2 LT PUSH2 0x42D JUMPI PUSH2 0x42C PUSH2 0x90B JUMP JUMPDEST JUMPDEST SWAP1 POP PUSH1 0x20 MUL ADD CALLDATALOAD DUP3 PUSH2 0x43F SWAP2 SWAP1 PUSH2 0xB51 JUMP JUMPDEST SWAP2 POP DUP1 DUP1 PUSH2 0x44C SWAP1 PUSH2 0xA32 JUMP JUMPDEST SWAP2 POP POP PUSH2 0x40F JUMP JUMPDEST POP SWAP3 SWAP2 POP POP JUMP JUMPDEST PUSH1 0x0 DUP1 REVERT JUMPDEST PUSH1 0x0 DUP1 REVERT JUMPDEST PUSH1 0x0 PUSH20 0xFFFFFFFFFFFFFFFFFFFFFFFFFFFFFFFFFFFFFFFF DUP3 AND SWAP1 POP SWAP2 SWAP1 POP JUMP JUMPDEST PUSH1 0x0 PUSH2 0x490 DUP3 PUSH2 0x465 JUMP JUMPDEST SWAP1 POP SWAP2 SWAP1 POP JUMP JUMPDEST PUSH2 0x4A0 DUP2 PUSH2 0x485 JUMP JUMPDEST DUP2 EQ PUSH2 0x4AB JUMPI PUSH1 0x0 DUP1 REVERT JUMPDEST POP JUMP JUMPDEST PUSH1 0x0 DUP2 CALLDATALOAD SWAP1 POP PUSH2 0x4BD DUP2 PUSH2 0x497 JUMP JUMPDEST SWAP3 SWAP2 POP POP JUMP JUMPDEST PUSH1 0x0 DUP1 REVERT JUMPDEST PUSH1 0x0 DUP1 REVERT JUMPDEST PUSH1 0x0 DUP1 REVERT JUMPDEST PUSH1 0x0 DUP1 DUP4 PUSH1 0x1F DUP5 ADD SLT PUSH2 0x4E8 JUMPI PUSH2 0x4E7 PUSH2 0x4C3 JUMP JUMPDEST JUMPDEST DUP3 CALLDATALOAD SWAP1 POP PUSH8 0xFFFFFFFFFFFFFFFF DUP2 GT ISZERO PUSH2 0x505 JUMPI PUSH2 0x504 PUSH2 0x4C8 JUMP JUMPDEST JUMPDEST PUSH1 0x20 DUP4 ADD SWAP2 POP DUP4 PUSH1 0x20 DUP3 MUL DUP4 ADD GT ISZERO PUSH2 0x521 JUMPI PUSH2 0x520 PUSH2 0x4CD JUMP JUMPDEST JUMPDEST SWAP3 POP SWAP3 SWAP1 POP JUMP JUMPDEST PUSH1 0x0 DUP1 DUP4 PUSH1 0x1F DUP5 ADD SLT PUSH2 0x53E JUMPI PUSH2 0x53D PUSH2 0x4C3 JUMP JUMPDEST JUMPDEST DUP3 CALLDATALOAD SWAP1 POP PUSH8 0xFFFFFFFFFFFFFFFF DUP2 GT ISZERO PUSH2 0x55B JUMPI PUSH2 0x55A PUSH2 0x4C8 JUMP JUMPDEST JUMPDEST PUSH1 0x20 DUP4 ADD SWAP2 POP DUP4 PUSH1 0x20 DUP3 MUL DUP4 ADD GT ISZERO PUSH2 0x577 JUMPI PUSH2 0x576 PUSH2 0x4CD JUMP JUMPDEST JUMPDEST SWAP3 POP SWAP3 SWAP1 POP JUMP JUMPDEST PUSH1 0x0 DUP1 PUSH1 0x0 DUP1 PUSH1 0x0 PUSH1 0x60 DUP7 DUP9 SUB SLT ISZERO PUSH2 0x59A JUMPI PUSH2 0x599 PUSH2 0x45B JUMP JUMPDEST JUMPDEST PUSH1 0x0 PUSH2 0x5A8 DUP9 DUP3 DUP10 ADD PUSH2 0x4AE JUMP JUMPDEST SWAP6 POP POP PUSH1 0x20 DUP7 ADD CALLDATALOAD PUSH8 0xFFFFFFFFFFFFFFFF DUP2 GT ISZERO PUSH2 0x5C9 JUMPI PUSH2 0x5C8 PUSH2 0x460 JUMP JUMPDEST JUMPDEST PUSH2 0x5D5 DUP9 DUP3 DUP10 ADD PUSH2 0x4D2 JUMP JUMPDEST SWAP5 POP SWAP5 POP POP PUSH1 0x40 DUP7 ADD CALLDATALOAD PUSH8 0xFFFFFFFFFFFFFFFF DUP2 GT ISZERO PUSH2 0x5F8 JUMPI PUSH2 0x5F7 PUSH2 0x460 JUMP JUMPDEST JUMPDEST PUSH2 0x604 DUP9 DUP3 DUP10 ADD PUSH2 0x528 JUMP JUMPDEST SWAP3 POP SWAP3 POP POP SWAP3 SWAP6 POP SWAP3 SWAP6 SWAP1 SWAP4 POP JUMP JUMPDEST PUSH1 0x0 DUP1 DUP4 PUSH1 0x1F DUP5 ADD SLT PUSH2 0x629 JUMPI PUSH2 0x628 PUSH2 0x4C3 JUMP JUMPDEST JUMPDEST DUP3 CALLDATALOAD SWAP1 POP PUSH8 0xFFFFFFFFFFFFFFFF DUP2 GT ISZERO PUSH2 0x646 JUMPI PUSH2 0x645 PUSH2 0x4C8 JUMP JUMPDEST JUMPDEST PUSH1 0x20 DUP4 ADD SWAP2 POP DUP4 PUSH1 0x20 DUP3 MUL DUP4 ADD GT ISZERO PUSH2 0x662 JUMPI PUSH2 0x661 PUSH2 0x4CD JUMP JUMPDEST JUMPDEST SWAP3 POP SWAP3 SWAP1 POP JUMP JUMPDEST PUSH1 0x0 DUP1 PUSH1 0x0 DUP1 PUSH1 0x40 DUP6 DUP8 SUB SLT ISZERO PUSH2 0x683 JUMPI PUSH2 0x682 PUSH2 0x45B JUMP JUMPDEST JUMPDEST PUSH1 0x0 DUP6 ADD CALLDATALOAD PUSH8 0xFFFFFFFFFFFFFFFF DUP2 GT ISZERO PUSH2 0x6A1 JUMPI PUSH2 0x6A0 PUSH2 0x460 JUMP JUMPDEST JUMPDEST PUSH2 0x6AD DUP8 DUP3 DUP9 ADD PUSH2 0x613 JUMP JUMPDEST SWAP5 POP SWAP5 POP POP PUSH1 0x20 DUP6 ADD CALLDATALOAD PUSH8 0xFFFFFFFFFFFFFFFF DUP2 GT ISZERO PUSH2 0x6D0 JUMPI PUSH2 0x6CF PUSH2 0x460 JUMP JUMPDEST JUMPDEST PUSH2 0x6DC DUP8 DUP3 DUP9 ADD PUSH2 0x528 JUMP JUMPDEST SWAP3 POP SWAP3 POP POP SWAP3 SWAP6 SWAP2 SWAP5 POP SWAP3 POP JUMP JUMPDEST PUSH1 0x0 DUP1 PUSH1 0x20 DUP4 DUP6 SUB SLT ISZERO PUSH2 0x701 JUMPI PUSH2 0x700 PUSH2 0x45B JUMP JUMPDEST JUMPDEST PUSH1 0x0 DUP4 ADD CALLDATALOAD PUSH8 0xFFFFFFFFFFFFFFFF DUP2 GT ISZERO PUSH2 0x71F JUMPI PUSH2 0x71E PUSH2 0x460 JUMP JUMPDEST JUMPDEST PUSH2 0x72B DUP6 DUP3 DUP7 ADD PUSH2 0x528 JUMP JUMPDEST SWAP3 POP SWAP3 POP POP SWAP3 POP SWAP3 SWAP1 POP JUMP JUMPDEST PUSH1 0x0 DUP2 SWAP1 POP SWAP2 SWAP1 POP JUMP JUMPDEST PUSH2 0x74A DUP2 PUSH2 0x737 JUMP JUMPDEST DUP3 MSTORE POP POP JUMP JUMPDEST PUSH1 0x0 PUSH1 0x20 DUP3 ADD SWAP1 POP PUSH2 0x765 PUSH1 0x0 DUP4 ADD DUP5 PUSH2 0x741 JUMP JUMPDEST SWAP3 SWAP2 POP POP JUMP JUMPDEST PUSH1 0x0 DUP3 DUP3 MSTORE PUSH1 0x20 DUP3 ADD SWAP1 POP SWAP3 SWAP2 POP POP JUMP JUMPDEST PUSH32 0x4C656E67746873206F662041646472657373657320616E6420416D6F756E7473 PUSH1 0x0 DUP3 ADD MSTORE PUSH32 0x204E4F5420455155414C00000000000000000000000000000000000000000000 PUSH1 0x20 DUP3 ADD MSTORE POP JUMP JUMPDEST PUSH1 0x0 PUSH2 0x7D8 PUSH1 0x2A DUP4 PUSH2 0x76B JUMP JUMPDEST SWAP2 POP PUSH2 0x7E3 DUP3 PUSH2 0x77C JUMP JUMPDEST PUSH1 0x40 DUP3 ADD SWAP1 POP SWAP2 SWAP1 POP JUMP JUMPDEST PUSH1 0x0 PUSH1 0x20 DUP3 ADD SWAP1 POP DUP2 DUP2 SUB PUSH1 0x0 DUP4 ADD MSTORE PUSH2 0x807 DUP2 PUSH2 0x7CB JUMP JUMPDEST SWAP1 POP SWAP2 SWAP1 POP JUMP JUMPDEST PUSH2 0x817 DUP2 PUSH2 0x485 JUMP JUMPDEST DUP3 MSTORE POP POP JUMP JUMPDEST PUSH1 0x0 PUSH1 0x40 DUP3 ADD SWAP1 POP PUSH2 0x832 PUSH1 0x0 DUP4 ADD DUP6 PUSH2 0x80E JUMP JUMPDEST PUSH2 0x83F PUSH1 0x20 DUP4 ADD DUP5 PUSH2 0x80E JUMP JUMPDEST SWAP4 SWAP3 POP POP POP JUMP JUMPDEST PUSH2 0x84F DUP2 PUSH2 0x737 JUMP JUMPDEST DUP2 EQ PUSH2 0x85A JUMPI PUSH1 0x0 DUP1 REVERT JUMPDEST POP JUMP JUMPDEST PUSH1 0x0 DUP2 MLOAD SWAP1 POP PUSH2 0x86C DUP2 PUSH2 0x846 JUMP JUMPDEST SWAP3 SWAP2 POP POP JUMP JUMPDEST PUSH1 0x0 PUSH1 0x20 DUP3 DUP5 SUB SLT ISZERO PUSH2 0x888 JUMPI PUSH2 0x887 PUSH2 0x45B JUMP JUMPDEST JUMPDEST PUSH1 0x0 PUSH2 0x896 DUP5 DUP3 DUP6 ADD PUSH2 0x85D JUMP JUMPDEST SWAP2 POP POP SWAP3 SWAP2 POP POP JUMP JUMPDEST PUSH32 0x4E65656420417070726F766520455243323020746F6B656E0000000000000000 PUSH1 0x0 DUP3 ADD MSTORE POP JUMP JUMPDEST PUSH1 0x0 PUSH2 0x8D5 PUSH1 0x18 DUP4 PUSH2 0x76B JUMP JUMPDEST SWAP2 POP PUSH2 0x8E0 DUP3 PUSH2 0x89F JUMP JUMPDEST PUSH1 0x20 DUP3 ADD SWAP1 POP SWAP2 SWAP1 POP JUMP JUMPDEST PUSH1 0x0 PUSH1 0x20 DUP3 ADD SWAP1 POP DUP2 DUP2 SUB PUSH1 0x0 DUP4 ADD MSTORE PUSH2 0x904 DUP2 PUSH2 0x8C8 JUMP JUMPDEST SWAP1 POP SWAP2 SWAP1 POP JUMP JUMPDEST PUSH32 0x4E487B7100000000000000000000000000000000000000000000000000000000 PUSH1 0x0 MSTORE PUSH1 0x32 PUSH1 0x4 MSTORE PUSH1 0x24 PUSH1 0x0 REVERT JUMPDEST PUSH1 0x0 PUSH1 0x20 DUP3 DUP5 SUB SLT ISZERO PUSH2 0x950 JUMPI PUSH2 0x94F PUSH2 0x45B JUMP JUMPDEST JUMPDEST PUSH1 0x0 PUSH2 0x95E DUP5 DUP3 DUP6 ADD PUSH2 0x4AE JUMP JUMPDEST SWAP2 POP POP SWAP3 SWAP2 POP POP JUMP JUMPDEST PUSH1 0x0 PUSH1 0x60 DUP3 ADD SWAP1 POP PUSH2 0x97C PUSH1 0x0 DUP4 ADD DUP7 PUSH2 0x80E JUMP JUMPDEST PUSH2 0x989 PUSH1 0x20 DUP4 ADD DUP6 PUSH2 0x80E JUMP JUMPDEST PUSH2 0x996 PUSH1 0x40 DUP4 ADD DUP5 PUSH2 0x741 JUMP JUMPDEST SWAP5 SWAP4 POP POP POP POP JUMP JUMPDEST PUSH1 0x0 DUP2 ISZERO ISZERO SWAP1 POP SWAP2 SWAP1 POP JUMP JUMPDEST PUSH2 0x9B3 DUP2 PUSH2 0x99E JUMP JUMPDEST DUP2 EQ PUSH2 0x9BE JUMPI PUSH1 0x0 DUP1 REVERT JUMPDEST POP JUMP JUMPDEST PUSH1 0x0 DUP2 MLOAD SWAP1 POP PUSH2 0x9D0 DUP2 PUSH2 0x9AA JUMP JUMPDEST SWAP3 SWAP2 POP POP JUMP JUMPDEST PUSH1 0x0 PUSH1 0x20 DUP3 DUP5 SUB SLT ISZERO PUSH2 0x9EC JUMPI PUSH2 0x9EB PUSH2 0x45B JUMP JUMPDEST JUMPDEST PUSH1 0x0 PUSH2 0x9FA DUP5 DUP3 DUP6 ADD PUSH2 0x9C1 JUMP JUMPDEST SWAP2 POP POP SWAP3 SWAP2 POP POP JUMP JUMPDEST PUSH32 0x4E487B7100000000000000000000000000000000000000000000000000000000 PUSH1 0x0 MSTORE PUSH1 0x11 PUSH1 0x4 MSTORE PUSH1 0x24 PUSH1 0x0 REVERT JUMPDEST PUSH1 0x0 PUSH2 0xA3D DUP3 PUSH2 0x737 JUMP JUMPDEST SWAP2 POP PUSH32 0xFFFFFFFFFFFFFFFFFFFFFFFFFFFFFFFFFFFFFFFFFFFFFFFFFFFFFFFFFFFFFFFF DUP3 SUB PUSH2 0xA6F JUMPI PUSH2 0xA6E PUSH2 0xA03 JUMP JUMPDEST JUMPDEST PUSH1 0x1 DUP3 ADD SWAP1 POP SWAP2 SWAP1 POP JUMP JUMPDEST PUSH32 0x5472616E7366657220616D6F756E74206572726F720000000000000000000000 PUSH1 0x0 DUP3 ADD MSTORE POP JUMP JUMPDEST PUSH1 0x0 PUSH2 0xAB0 PUSH1 0x15 DUP4 PUSH2 0x76B JUMP JUMPDEST SWAP2 POP PUSH2 0xABB DUP3 PUSH2 0xA7A JUMP JUMPDEST PUSH1 0x20 DUP3 ADD SWAP1 POP SWAP2 SWAP1 POP JUMP JUMPDEST PUSH1 0x0 PUSH1 0x20 DUP3 ADD SWAP1 POP DUP2 DUP2 SUB PUSH1 0x0 DUP4 ADD MSTORE PUSH2 0xADF DUP2 PUSH2 0xAA3 JUMP JUMPDEST SWAP1 POP SWAP2 SWAP1 POP JUMP JUMPDEST PUSH1 0x0 PUSH2 0xAF1 DUP3 PUSH2 0x465 JUMP JUMPDEST SWAP1 POP SWAP2 SWAP1 POP JUMP JUMPDEST PUSH2 0xB01 DUP2 PUSH2 0xAE6 JUMP JUMPDEST DUP2 EQ PUSH2 0xB0C JUMPI PUSH1 0x0 DUP1 REVERT JUMPDEST POP JUMP JUMPDEST PUSH1 0x0 DUP2 CALLDATALOAD SWAP1 POP PUSH2 0xB1E DUP2 PUSH2 0xAF8 JUMP JUMPDEST SWAP3 SWAP2 POP POP JUMP JUMPDEST PUSH1 0x0 PUSH1 0x20 DUP3 DUP5 SUB SLT ISZERO PUSH2 0xB3A JUMPI PUSH2 0xB39 PUSH2 0x45B JUMP JUMPDEST JUMPDEST PUSH1 0x0 PUSH2 0xB48 DUP5 DUP3 DUP6 ADD PUSH2 0xB0F JUMP JUMPDEST SWAP2 POP POP SWAP3 SWAP2 POP POP JUMP JUMPDEST PUSH1 0x0 PUSH2 0xB5C DUP3 PUSH2 0x737 JUMP JUMPDEST SWAP2 POP PUSH2 0xB67 DUP4 PUSH2 0x737 JUMP JUMPDEST SWAP3 POP DUP3 DUP3 ADD SWAP1 POP DUP1 DUP3 GT ISZERO PUSH2 0xB7F JUMPI PUSH2 0xB7E PUSH2 0xA03 JUMP JUMPDEST JUMPDEST SWAP3 SWAP2 POP POP JUMP INVALID LOG2 PUSH5 0x6970667358 0x22 SLT KECCAK256 SLOAD PUSH1 0x27 SWAP10 DUP13 MULMOD DUP7 0xDA 0xA9 0xDB 0x4D PUSH12 0x18B160BEF55D9543BF6EAF0C 0x2B SWAP2 PUSH20 0xA1C65996CF64736F6C6343000812003300000000 "
				},
				"gasEstimates": {
					"creation": {
						"codeDepositCost": "600600",
						"executionCost": "632",
						"totalCost": "601232"
					},
					"external": {
						"getSum(uint256[])": "infinite",
						"multiTransferETH(address[],uint256[])": "infinite",
						"multiTransferToken(address,address[],uint256[])": "infinite"
					}
				},
				"methodIdentifiers": {
					"getSum(uint256[])": "ccb8c1e0",
					"multiTransferETH(address[],uint256[])": "77988cf8",
					"multiTransferToken(address,address[],uint256[])": "41ed24a2"
				}
			},
			"storageLayout": {
				"storage": [],
				"types": null
			},
			"userdoc": {
				"kind": "user",
				"methods": {
					"multiTransferETH(address[],uint256[])": {
						"notice": "向多个地址转账ETH"
					},
					"multiTransferToken(address,address[],uint256[])": {
						"notice": "向多个地址转账ERC20代币，使用前需要先授权"
					}
				},
				"notice": "向多个地址转账ERC20代币",
				"version": 1
			}
		}
	}
}